:020000040800F2
:1000000000000220A1260008B90D0008BB0D000861
:10001000BD0D0008BF0D0008C10D00080000000064
:10002000000000000000000000000000C30D0008F8
:10003000C50D000800000000C70D0008C90D00082C
:10004000F1260008F1260008F1260008F126000834
:10005000F1260008F126000875060008F1260008C0
:10006000F1260008F1260008F1260008F126000814
:10007000F1260008F1260008F1260008F126000804
:10008000D10D0008F1260008F1260008F12600082D
:10009000F1260008F1260008F1260008F1260008E4
:1000A000F1260008F1260008F1260008F1260008D4
:1000B000F1260008F1260008F1260008F1260008C4
:1000C000F1260008F1260008F1260008F1260008B4
:1000D000F1260008F1260008F1260008F1260008A4
:1000E000F1260008F1260008F1260008F126000894
:1000F000F1260008F1260008F1260008F126000884
:10010000F1260008F1260008F1260008F126000873
:10011000F1260008F1260008F1260008F126000863
:10012000F1260008F1260008F1260008F126000853
:10013000F12600080000000000000000F126000881
:10014000F1260008F1260008F1260008F126000833
:10015000F1260008F1260008F1260008F126000823
:10016000F1260008F1260008F1260008F126000813
:10017000F1260008F1260008F12600080000000022
:1001800000000000F1260008000000000000000050
:10019000F12600080000000000000000F126000821
:1001A000000000000000000000000000F126000830
:1001B000F1260008F1260008F1260008F1260008C3
:0401C000F12600081C
:1001C40010B5054C237833B9044B13B10448AFF38D
:1001D40000800123237010BD2800002000000000CF
:1001E4004C27000808B5034B1BB103490348AFF380
:1001F400008008BD000000002C0000204C270008EF
:1002040053B94AB9002908BF00281CBF4FF0FF3179
:100214004FF0FF3000F088B9ADF1080C6DE904CE61
:1002240000F006F8DDF804E0DDE9022304B07047CD
:100234002DE9F047089D8E4604468846002B4AD196
:100244008A42174662D9B2FA82F64EB1C6F1200349
:1002540001FA06F820FA03F3B74043EA0808B44069
:100264004FEA174E1FFA87FCB8FBFEF1230C0EFB76
:10027400118843EA084301FB0CF29A4209D9FB189E
:1002840001F1FF3080F0EA809A4240F2E7800239BF
:100294003B449A1AA3B2B2FBFEF00EFB102243EACF
:1002A400024300FB0CFC9C4509D9FB1800F1FF320A
:1002B40080F0D6809C4540F2D3803B44023840EA2B
:1002C4000140A3EB0C0300211DB1F3400022C5E95A
:1002D4000032BDE8F0878B4205D90DB1C5E90001B4
:1002E40000210846F5E7B3FA83F1002946D17345A6
:1002F40002D3824200F20581841A6EEB03020120CC
:100304009046002DE5D0C5E90048E2E7002A00F058
:100314009080B2FA82F6002E40F0A4808A1A030C70
:100324004FEA174E80B2BCB20121B2FBFEFC0EFBB9
:100334001C2243EA024304FB0CF29A4207D9FB183D
:100344000CF1FF3802D29A4200F2E080C4469B1AB4
:10035400B3FBFEF20EFB123340EA034302FB04F448
:100364009C4207D9FB1802F1FF3002D29C4200F2F2
:10037400CA8002461B1B42EA0C40A5E7C1F12006D5
:100384008B4022FA06F71F430EFA01F420FA06F313
:100394002EFA06FE4FEA1749234300FA01F81FFA22
:1003A40087FCBEFBF9F01C0C09FB10EE44EA0E447A
:1003B40000FB0CFEA64502FA01F209D93C1900F132
:1003C400FF3A80F09C80A64540F2998002383C4474
:1003D400A4EB0E041FFA83FEB4FBF9F309FB1344E8
:1003E4004EEA044403FB0CFCA44508D93C1903F170
:1003F400FF3E80F08280A4457FD9023B3C4443EA1F
:100404000040A4EB0C04A0FB02EC64457346E146F7
:1004140062D35FD05DB1B8EB030264EB090404FA64
:1004240006F622FA01F31E43CC40C5E9006400211C
:100434004FE7B1FBF2FC010C41EA0E4180B240EA05
:1004440001423B4638463C46B846BE462026B1FBF0
:10045400F7F1A2EB080241EA0C4166E7014618E70E
:1004640010462CE7C6F120022EFA02F3B740B14041
:1004740020FA02F24FEA174E0A43B3FBFEF8BCB26D
:100484000EFB1833110C41EA034108FB04F9B04098
:1004940089454FEA104380B23ED9791808F1FF3CF0
:1004A40001D289451FD8A1EB0901B1FBFEF909FB73
:1004B40004F80EFB191192B242EA0142424529D2D4
:1004C400BA1809F1FF31C4D24245C2D2A9F10201DE
:1004D4003A44BEE7F0459DD2BEEB02036CEB070C39
:1004E4000138E14696E7A7EB09094944A8F1020C53
:1004F400B1FBFEF909FB04F8DBE773467FE75046DE
:1005040066E70846FDE63B44023A33E7ACF1020CE9
:100514003B441CE749469CE7A1EB0901C446B1FBF7
:10052400FEF909FB04F8C4E7704700BF2DE9F04F5A
:1005340089B00024039404940594069407940094C9
:100544002F4B1A6B42F080021A631A6B02F080027E
:100554000092009A01941A6B42F001021A631A6B1A
:1005640002F001020192019A02941A6B42F0020213
:100574001A631B6B03F002030293029B4FF4404B7C
:10058400CDF80CB001260496DFF87CA003A95046F0
:1005940001F08EFC4FF44079CDF80C90DFF86C80BC
:1005A40003A9404601F084FC4FF410470397154D0E
:1005B40003A9284601F07CFC22465946504601F026
:1005C40067FD22464946404601F062FD224639460F
:1005D400284601F05DFD03964FF4881304930596B5
:1005E40003A9284601F064FC22460221062001F0FA
:1005F400D1FF062001F0DEFF09B0BDE8F08F00BF97
:10060400003802400000024000080240000402409A
:1006140000B583B000210191094B1A6B42F400121A
:100624001A631B6B03F400130193019B0A46102009
:1006340001F0B0FF102001F0BDFF03B05DF804FB32
:1006440000380240054B064A1A60064A5A609A600E
:10065400054ADA60054A1A615A6170475C00002055
:100664000000FA440000FA43CDCC4C3DCDCCCC3D47
:1006740008B502F003F83C4B1B88C31AC82B03D8F7
:10068400012001F00DFD08BD374B1880374B1A6867
:10069400D36823F40073D360354801F026FE35494E
:1006A4000A780132344B83FB020303EB4303A2EBCE
:1006B4004303DBB20B70314A52F823104FF08042EF
:1006C400D162052B0DD8DFE803F0031D27313B452C
:1006D4002B4A52F823302B4A12682B49244801F044
:1006E400CFFD012000F0A6FA224B1A78274B53F8CD
:1006F400220000F093FA1D4B1A68D36843F4007388
:10070400D360BDE71E4A52F823301E4A12682049BE
:10071400174801F0B5FDE4E7194A52F82330194AA5
:1007240012681C49124801F0ABFDDAE7144A52F88A
:100734002330144A126818490D4801F0A1FDD0E78E
:100744000F4A52F823300F4A12681449084801F03E
:1007540097FDC6E70A4A52F823300A4A126810493C
:10076400034801F08DFDBCE7760000202001002045
:100774007800002074000020ABAAAA2A44000020BC
:100784006427000800000020B429000804000020A9
:10079400B42B0008B4270008B42D000838660108FB
:1007A400BC9E020872B6FEE700B58FB000230A9320
:1007B4000B930C930D930893099301930293039362
:1007C400049305930693079335484FF080420260E3
:1007D400436083604FF0FF32C2600361836100F0C5
:1007E400C3FC002850D14FF480530A930AA92C4823
:1007F40000F020FE002849D1294800F0E1FC00283F
:1008040046D100230893099308A9254800F0A4FFC2
:1008140000283FD10022019202920392059201A97D
:100824001F4800F05DFD002836D1002300931D4AC7
:10083400116B41F400111163126B02F40012009267
:10084400009A1948194A02604FF0C062426040227F
:100854008260C3604FF4806202614FF400624261BF
:100864004FF4005282614FF48072C2614FF400323F
:100874000262436201F09EFC80B9094A0A4B53624A
:100884009A630FB05DF804FBFFF78CFFFFF78AFF54
:10089400FFF788FFFFF786FFFFF784FFFFF782FF6C
:1008A40020010020003802407800002088600240C7
:1008B40000B58FB000230A930B930C930D93089308
:1008C4000993019302930393049305930693079367
:1008D4001E481F4A02604360836040F28F12C26068
:1008E4000361836100F040FC30BB4FF480530A93F2
:1008F4000AA9164800F09EFD00BB144800F08CFCC9
:10090400F0B900230893099308A9104800F024FFC4
:10091400C0B960230193C823029300230393059372
:10092400082201A9094800F00AFD68B9074800F047
:10093400BDFA0FB05DF804FBFFF734FFFFF732FF99
:10094400FFF730FFFFF72EFFFFF72CFFD800002042
:100954000004004000B595B03422002107A801F03E
:10096400C6FE002302930393049305930693009316
:10097400194A116C41F080511164126C02F08052DA
:100984000092009A019315490A6822F4404242F405
:1009940080420A600A6802F440420192019A0222EB
:1009A400079201220A9210220B920D9307A801F0DC
:1009B4005DF868B90F230293002103910491059116
:1009C400069102A800F00EFF20B915B05DF804FBF3
:1009D400FFF7E8FEFFF7E6FE003802400070004033
:1009E40038B501F025FEFFF72DFE002319E0294A52
:1009F40002EB830292ED007A274A02EB8302D2EDE6
:100A0400007AF8EE677A67EE877ADFED246A86EE7D
:100A1400A77ABCEEC77A224A17EE101A42F82310BE
:100A24000133052BE3DDFFF795FFFFF77FFDFFF7AC
:100A3400EFFDFFF7B9FEFFF73BFF0821194800F06F
:100A440009FE194C0021204600F082FD174D2A783A
:100A5400134B53F822204FF08043DA6200212046E2
:100A640000F076FD2A780C4B53F82230104A1268B5
:100A74001049114801F004FC00F064F92A780F4B86
:100A840053F8220000F0CAF82268D36843F40073D4
:100A9400D360FEE75C000020642700080024744B48
:100AA40044000020D8000020200100207400002011
:100AB40000000020B4290008780000200400002071
:100AC40082B000EB40000023019304E000BF00BFAC
:100AD400019B01330193019B8342F7D302B070471A
:100AE40010B51420FFF7ECFF094CA36943F400434D
:100AF400A3611420FFF7E4FFA36943F00043A3615B
:100B04001420FFF7DDFFA36943F40043A36110BD84
:100B14000008024010B504463D4A936943F48043FB
:100B2400936110F0800F41D13A4A936943F0004336
:100B3400936114F0400F40D0364A936943F48053D4
:100B4400936114F0200F3ED0334A936943F4007349
:100B5400936114F0100F3CD02F4A936943F48073CF
:100B64009361FFF7BDFF14F0080F38D0294A936949
:100B740043F40043936114F0040F36D0254A93697B
:100B840043F48053936114F0020F34D0224A9369E2
:100B940043F40073936114F0010F32D01E4A936939
:100BA40043F480739361FFF79BFF10BDA2F50062CD
:100BB400936943F400439361BBE7164A936943F096
:100BC40080539361BDE7144A936943F000739361C2
:100BD400BFE7114A936943F080739361C1E70D4AFB
:100BE400936943F000439361C5E70A4A936943F06C
:100BF40080539361C7E7084A936943F00073936194
:100C0400C9E7054A936943F080739361CBE700BF5A
:100C140000080240000002400004024038B50546C6
:100C2400002403E0FFF776FF0134E4B2285D0028D6
:100C3400F8D138BD10B504463F4A936943F0804368
:100C4400936110F0800F45D13C4A936943F000430F
:100C5400936114F0400F44D0384A936943F48053AD
:100C6400936114F0200F42D0354A936943F4007322
:100C7400936114F0100F40D0314A936943F48073A8
:100C84009361FFF72DFF14F0080F3CD02B4A9369B2
:100C940043F40043936114F0040F3AD0274A936954
:100CA40043F48053936114F0020F38D0244A9369BB
:100CB40043F40073936114F0010F36D0204A936912
:100CC40043F480739361FFF70BFF40F6B830FFF7EE
:100CD400F7FE10BDA2F50062936943F400439361EB
:100CE400B7E7164A936943F080539361B9E7144A0E
:100CF400936943F000739361BBE7114A936943F02E
:100D040080739361BDE70D4A936943F00043936197
:100D1400C1E70A4A936943F080539361C3E7084AE1
:100D2400936943F000739361C5E7054A936943F0FF
:100D340080739361C7E700BF0008024000000240CF
:100D44000004024008B5194B1A6B42F001021A6301
:100D54001A6B42F002021A631A6B42F004021A631D
:100D6400134A136843F08243136002F580621368E8
:100D740043F4A023136002F58062136843F0A04398
:100D8400136047F23050FFF79BFE3320FFF752FF0A
:100D94003220FFF74FFF0C20FFF74CFF2820FFF70E
:100DA40049FF0120FFF746FF08BD00BF003802409D
:100DB40000000240FEE7FEE7FEE7FEE7FEE77047BD
:100DC4007047704708B501F04DFC08BD08B50248EE
:100DD40001F09EFA08BD00BF7800002082B0002117
:100DE40000910B4B5A6C42F480425A645A6C02F4E0
:100DF40080420092009A01911A6C42F080521A6467
:100E04001B6C03F080530193019B02B0704700BF39
:100E14000038024010B582B00368B3F1804F04D0AB
:100E24001E4A93422CD002B010BD04460023009306
:100E34001B4A116C41F001011164126C02F00102B1
:100E44000092009A1748184A02604FF0C06242604C
:100E54008360C3604FF4806202614FF48052426148
:100E64004FF480428261C3610362436201F0A2F9DC
:100E740018B90C4B63629C63D5E7FFF793FCF8E762
:100E840000230193064B1A6C42F002021A641B6C95
:100E940003F002030193019BC5E700BF0004004077
:100EA40000380240780000208860024000B587B016
:100EB40000230193029303930493059302680E4B5A
:100EC4009A4202D007B05DF804FB002300930B4B59
:100ED4001A6B42F002021A631B6B03F002030093C5
:100EE400009B0123019302230293059301A9044863
:100EF40000F0DEFFE6E700BF0004004000380240D7
:100F04000004024030B4036A026A22F00102026261
:100F14004268846924F0730C0C6844EA0C0423F0DE
:100F2400020C8B6843EA0C03114DA84203D005F56B
:100F34008065A84205D123F00803CD682B4323F034
:100F440004030B4DA84203D005F58065A84207D1E0
:100F540022F440724D6945EA020C8A6942EA0C02A5
:100F6400426084614A684263036230BC704700BFD8
:100F74000000014030B4036A026A22F48072026203
:100F84004268C46924F0730C0C6844EA0C0523F429
:100F940000738C6843EA0423114CA04203D004F587
:100FA4008064A04206D123F40063CC6843EA04239E
:100FB40023F480630A4CA04203D004F58064A04269
:100FC40007D122F440524C6942EA04128C6942EA85
:100FD40004124260C5614A68C263036230BC704750
:100FE4000000014030B4036A026A22F480520262B3
:100FF4004468C26922F4E6420D6842EA052223F4F9
:1010040000538D6843EA0533094DA84203D005F522
:101014008065A84204D124F480444D6944EA8514CF
:101024004460C2614A680264036230BC704700BF16
:101034000000014010B4036A046A24F0010404624D
:10104400846924F0F00C4CEA021223F00A030B43E7
:10105400826103625DF8044B704710B4036A046A4A
:1010640024F010040462846924F4704C4CEA0232C3
:1010740023F0A00343EA0113826103625DF8044B89
:101084007047836823F070030B4343F007038360C6
:1010940070477047704700000368324A904212D08C
:1010A400B0F1804F0FD0A2F57C4290420BD002F5F4
:1010B4008062904207D002F58062904203D002F52C
:1010C4007842904203D123F070034A681343254ABF
:1010D40090422AD0B0F1804F27D0A2F57C429042B2
:1010E40023D002F5806290421FD002F580629042C4
:1010F4001BD002F57842904217D002F5705290420C
:1011040013D002F5806290420FD002F580629042C3
:101114000BD0A2F59832904207D002F5806290423B
:1011240003D002F58062904203D123F44073CA686D
:10113400134323F080034A6913438A68C2620A682E
:101144008262084A904203D002F58062904201D143
:101154000A690263026842F00402026001224261E9
:10116400036070470000014040B310B5044690F896
:101174003D30F3B1022384F83D30214651F8040B8D
:10118400FFF78AFF012384F8463084F83E3084F860
:101194003F3084F8403084F8413084F8423084F899
:1011A400433084F8443084F8453084F83D300020DE
:1011B40010BD80F83C30FFF72DFEDBE701207047BF
:1011C40040B310B5044690F83D30F3B1022384F8DF
:1011D4003D30214651F8040BFFF75EFF012384F8EC
:1011E400463084F83E3084F83F3084F8403084F848
:1011F400413084F8423084F8433084F8443084F831
:10120400453084F83D30002010BD80F83C30FFF7B5
:1012140040FFDBE70120704740B310B5044690F867
:101224003D30F3B1022384F83D30214651F8040BDC
:10123400FFF732FF012384F8463084F83E3084F807
:101244003F3084F8403084F8413084F8423084F8E8
:10125400433084F8443084F8453084F83D3000202D
:1012640010BD80F83C30FFF715FFDBE70120704725
:1012740030B4036A026A22F010020262446882698E
:1012840022F4E6420D6842EA052223F020038D6829
:1012940043EA0513114DA84203D005F58065A84221
:1012A40006D123F08003CD6843EA051323F04003FD
:1012B4000A4DA84203D005F58065A84207D124F45D
:1012C40040644D6944EA85048D6944EA85044460B8
:1012D40082614A688263036230BC70470000014047
:1012E40090F83C30012B28D010B50446012380F837
:1012F4003C300C2A1CD8DFE802F0071B1B1B0C1B1C
:101304001B1B111B1B1B16000068FFF7FBFD0020B5
:101314000FE00068FFF7ACFF00200AE00068FFF769
:1013240029FE002005E00068FFF75CFE002000E0D5
:101334000120002384F83C3010BD0220704738B5EA
:1013440090F83C30012B66D004460D46012380F80A
:101354003C300C2A5AD8DFE802F0075959591B5976
:1013640059593059595944000068FFF7CBFD226898
:10137400936943F0080393612268936923F004039B
:1013840093612268936929690B43936100203EE0CD
:101394000068FFF76DFF2268936943F4006393616B
:1013A4002268936923F480639361226893692969AD
:1013B40043EA01239361002029E00068FFF7DAFD86
:1013C4002268D36943F00803D3612268D36923F008
:1013D4000403D3612268D36929690B43D3610020D4
:1013E40015E00068FFF7FEFD2268D36943F400634B
:1013F400D3612268D36923F48063D3612268D369FB
:10140400296943EA0123D361002000E0012000237D
:1014140084F83C3038BD0220FCE710B4846824F41E
:101424007F4C42EA03220A4342EA0C0282605DF8DE
:10143400044B704790F83C30012B78D010B504462B
:10144400012380F83C30022380F83D300268936821
:1014540023F47F4323F0770393600B68602B4CD015
:1014640023D8402B54D011D8202B03D00AD80BB149
:10147400102B05D119462068FFF703FE002028E051
:10148400012026E0302BF5D0012022E0502B0AD198
:10149400CA6849680068FFF7CDFD50212068FFF74E
:1014A400F0FD002015E0012013E0B3F5805F3AD091
:1014B400B3F5005F14D0702B37D1CB684A688968C4
:1014C4000068FFF7AAFF2268936843F077039360EC
:1014D4000020012384F83D30002384F83C3010BD03
:1014E400CB684A6889680068FFF797FF22689368A9
:1014F40043F4804393600020EBE7CA6849680068BE
:10150400FFF7ABFD60212068FFF7BBFD0020E0E79B
:10151400CA6849680068FFF78DFD40212068FFF71D
:10152400B0FD0020D5E70020D3E70120D1E7022059
:10153400704701F01F014FF0010C0CFA01FC036A23
:1015440023EA0C030362036A8A401343036270476D
:1015540010B504460846002942D194F83E30DBB267
:10156400013B18BF0123002B6ED1002851D1022367
:1015740084F83E30012201462068FFF7DAFF236831
:10158400334A934203D002F58062934203D15A6CEA
:1015940042F400425A6423682D4A934249D0B3F17D
:1015A400804F46D0A2F57C42934242D002F580623D
:1015B40093423ED002F5806293423AD002F57842DB
:1015C400934236D002F57052934232D0A2F594324F
:1015D40093422ED01A6842F001021A60002032E0D1
:1015E400042908D008290DD094F84130DBB2013B1E
:1015F40018BF0123B7E794F83F30DBB2013B18BFB3
:101604000123B0E794F84030DBB2013B18BF01235B
:10161400A9E7042805D0082807D0022384F841301C
:10162400A8E7022384F83F30A4E7022384F840307B
:10163400A0E79A6802F00702062A07D01A6842F067
:1016440001021A60002010BD0120FCE70020FAE727
:101654000000014010B504460846002942D194F820
:101664003E30DBB2013B18BF0123002B6ED10028B2
:1016740051D1022384F83E30012201462068FFF74D
:1016840058FF2368334A934203D002F580629342A1
:1016940003D15A6C42F400425A6423682D4A93429F
:1016A40049D0B3F1804F46D0A2F57C42934242D058
:1016B40002F5806293423ED002F5806293423AD0B2
:1016C40002F57842934236D002F57052934232D0FA
:1016D400A2F5943293422ED01A6842F001021A60A5
:1016E400002032E0042908D008290DD094F84130B4
:1016F400DBB2013B18BF0123B7E794F83F30DBB2FC
:10170400013B18BF0123B0E794F84030DBB2013B42
:1017140018BF0123A9E7042805D0082807D002230D
:1017240084F84130A8E7022384F83F30A4E7022379
:1017340084F84030A0E79A6802F00702062A07D02E
:101744001A6842F001021A60002010BD0120FCE773
:101754000020FAE70000014090F83C20012A3DD027
:1017640010B40346012280F83C20022280F83D2078
:1017740002685068946820F0700C086840EA0C0015
:1017840050601A68164882421AD0B2F1804F17D0BE
:10179400A0F57C40824213D000F5806082420FD0D5
:1017A40000F5806082420BD000F57840824207D079
:1017B40000F57050824203D0A0F59430824204D1E7
:1017C40024F08004496821439160012283F83D207C
:1017D400002083F83C005DF8044B704702207047FA
:1017E40000000140002800F09B8070B50D460446BF
:1017F4004F4B1B6803F00F038B4208D2CBB24C4A09
:101804001370136803F00F038B4240F08B8023683E
:1018140013F0020F17D013F0040F04D0454A936855
:1018240043F4E0539360236813F0080F04D0414A53
:10183400936843F4604393603E4A936823F0F00353
:10184400A1680B439360236813F0010F32D06368DF
:10185400012B21D09A1E012A25D9364A126812F08A
:10186400020F61D033498A6822F0030213438B606C
:1018740000F004FF06462F4B9B6803F00C036268DC
:10188400B3EB820F16D000F0F9FE801B41F28833CF
:101894009842F0D9032042E0264A126812F4003F2D
:1018A400E0D101203BE0234A126812F0007FD9D135
:1018B400012034E01E4B1B6803F00F03AB4207D931
:1018C400EAB21B4B1A701B6803F00F03AB422DD115
:1018D400236813F0040F06D0164A936823F4E053E8
:1018E400E1680B439360236813F0080F07D0114A93
:1018F400936823F46043216943EAC103936000F0D1
:1019040021F80C4B9B68C3F303130B4AD35CD840F8
:101914000A4B18600A4B186800F064FE002070BD82
:10192400012070470120FAE70120F8E70120F6E7DB
:10193400003C02400038024048D70308240000203D
:101944002000002008B5464B9B6803F00C03082BCD
:1019540005D00C2B43D0042B7FD1424819E0404BD7
:101964005A6802F03F025B6813F4800F12D03C4BBC
:101974005968C1F388113B480023A1FB0001FEF71D
:101984003FFC374B5B68C3F3014301335B00B0FB9F
:10199400F3F008BD324B5868C0F388104FEA401C7E
:1019A400BCEB000C6EEB0E0E4FEA8E1343EA9C6305
:1019B4004FEA8C11B1EB0C0163EB0E03DB0043EA3D
:1019C4005173C90011EB000C43F100039902002389
:1019D4004FEA8C2041EA9C51FEF712FCD1E7204BE0
:1019E4005A6802F03F025B6813F4800F10D01C4B5E
:1019F4005968C1F388111B480023A1FB0001FEF7BD
:101A0400FFFB174B5B68C3F30273B0FBF3F0C0E753
:101A1400134B5868C0F388104FEA401CBCEB000C11
:101A24006EEB0E0E4FEA8E1343EA9C634FEA8C1161
:101A3400B1EB0C0163EB0E03DB0043EA5173C90005
:101A440011EB000C43F10003990200234FEA8C20B0
:101A540041EA9C51FEF7D4FBD3E7034899E700BF62
:101A64000038024040787D010024F400002800F092
:101A7400018270B582B00446036813F0010F41D0AF
:101A8400994B9B6803F00C03042B32D0964B9B6854
:101A940003F00C03082B27D0934B9B6803F00C0333
:101AA4000C2B59D06368B3F5803F5BD0B3F5A02FFE
:101AB4005ED08D4B1A6822F480321A601A6822F4C0
:101AC40080221A606368002B5CD000F0D7FD0546C5
:101AD400854B1B6813F4003F14D100F0CFFD401B6D
:101AE4006428F5D90320CCE17F4B5B6813F4800FA5
:101AF400D2D07D4B1B6813F4003F03D06368002BE6
:101B040000F0BA81236813F0020F60D0764B9B6813
:101B140013F00C0F4AD0744B9B6803F00C03082B92
:101B24003FD0714B9B6803F00C030C2B69D0E36826
:101B3400002B75D06D4B01221A6000F09FFD054605
:101B4400694B1B6813F0020F61D100F097FD401B35
:101B54000228F5D9032094E1634B5B6813F4800FEA
:101B6400A0D0C6E7604A136843F480331360A9E742
:101B74005D4B1A6842F480221A601A6842F480327B
:101B84001A609FE700F07AFD0546574B1B6813F473
:101B9400003FB7D000F072FD401B6428F5D9032044
:101BA4006FE1514B5B6813F4800FBAD14E4B1B6845
:101BB40013F0020F03D0E368012B40F05F814A4A1F
:101BC400136823F0F803216943EAC103136023680F
:101BD40013F0080F49D06369002B33D0434B012223
:101BE400C3F8802E00F04AFD05463F4B5B6F13F0AF
:101BF400020F3AD100F042FD401B0228F5D9032020
:101C04003FE1394B5B6813F4800F90D1CEE7364A3D
:101C1400136823F0F803216943EAC1031360D6E78C
:101C2400324B00221A6000F029FD05462E4B1B683A
:101C340013F0020FCBD000F021FD401B0228F5D990
:101C440003201EE1294B0022C3F8802E00F016FD6C
:101C54000546254B5B6F13F0020F06D000F00EFD16
:101C6400401B0228F5D903200BE1236813F0040F6D
:101C740076D01D4B1B6C13F0805F33D1002301938E
:101C8400194B1A6C42F080521A641B6C03F0805397
:101C94000193019B0125164B1B6813F4807F29D007
:101CA400A368012B3AD0052B3ED00F4B1A6F22F0BC
:101CB40001021A671A6F22F004021A67A368002B44
:101CC4003CD000F0DBFC0646074B1B6F13F0020F01
:101CD40045D100F0D3FC801B41F288339842F3D9FC
:101CE4000320CEE00025D6E700380240000047423A
:101CF400007000406B4A136843F48073136000F073
:101D0400BDFC0646674B1B6813F4807FC8D100F006
:101D1400B5FC801B0228F5D90320B2E0624A136F98
:101D240043F001031367C9E75F4B1A6F42F00402E3
:101D34001A671A6F42F001021A67BFE700F09EFCAF
:101D44000646594B1B6F13F0020F08D000F096FCA7
:101D5400801B41F288339842F3D9032091E0EDB916
:101D6400A369002B00F08C804F4A926802F00C02A9
:101D7400082A54D0022B17D04C4B00221A6600F0CC
:101D84007DFC0446484B1B6813F0007F45D000F0EF
:101D940075FC001B0228F5D9032072E0424A136C3B
:101DA40023F080531364DBE7404B00221A6600F0F3
:101DB40065FC05463C4B1B6813F0007F06D000F021
:101DC4005DFC401B0228F5D903205AE0E369226A2E
:101DD4001343626A43EA8213A26A5208013A43EA4D
:101DE4000243E26A43EA0263226B43EA02732E4A25
:101DF40053602E4B01221A6600F040FC04462A4B25
:101E04001B6813F0007F06D100F038FC001B022889
:101E1400F5D9032035E0002033E0002031E0012B28
:101E240031D0214B5B6803F48001E26991422CD1EB
:101E340003F03F02216A8A4229D1616A47F6C072DF
:101E44001A40B2EB811F24D103F44031A26A520834
:101E5400013AB1EB024F1ED103F07062E16AB2EBBA
:101E6400016F1AD103F0E043226BB3EB027F16D16A
:101E7400002006E001207047012002E0012000E07C
:101E8400002002B070BD0120FBE70120F9E701202A
:101E9400F7E70120F5E70120F3E70120F1E701204E
:101EA400EFE700BF007000400038024000004742E6
:101EB40000230F2B00F2E38070B582B065E08568E3
:101EC4004FEA430E032404FA0EF425EA0405CC6811
:101ED40004FA0EF42C438460446824EA02044A6839
:101EE400C2F300129A40224342605CE0DC080834EA
:101EF40050F8242003F00705AD004FF00F0E0EFA42
:101F040005FE22EA0E0E0A69AA4042EA0E0240F8D1
:101F140024205CE0062200E0002202FA0EF22A43AA
:101F24000234574D45F82420564A94686FEA0C024F
:101F340024EA0C054E6816F4801F01D04CEA04050F
:101F4400504CA560E46802EA04054E6816F4001FCC
:101F540001D04CEA04054B4CE560646802EA0405D0
:101F64004E6816F4003F01D04CEA0405454C656008
:101F7400246822404D6815F4803F01D04CEA0402E5
:101F8400404C226001330F2B77D801229A400C6811
:101F940004EA020C32EA0404F4D14C6804F00304A9
:101FA400013C012C8BD94A6802F00302032A09D0B0
:101FB400C4685D000322AA4024EA02048A68AA4095
:101FC4002243C2604A6802F00302022A8ED00468E7
:101FD4004FEA430E032202FA0EF224EA02044A688C
:101FE40002F0030202FA0EF2224302604A6812F47B
:101FF400403FC7D000220192234A546C44F48044E9
:102004005464526C02F480420192019A9C08A51C0B
:102014001B4A52F8255003F0030E4FEA8E0E0F228E
:1020240002FA0EF225EA0205184A90423FF474AF10
:1020340002F58062904216D002F58062904214D07C
:1020440002F58062904212D002F58062904210D074
:1020540002F5806290420ED002F5806290423FF415
:1020640059AF072259E7012257E7022255E7032215
:1020740053E7042251E705224FE702B070BD7047D1
:1020840000380140003C014000380240000002409A
:102094000AB181617047090481617047704700008B
:1020A40008B5054B5B69034200D108BD024B58617A
:1020B400FFF7F4FFF9E700BF003C014030B40568C6
:1020C4002C6824F480242C60046863608368402BAB
:1020D40005D0036899600368DA6030BC7047036810
:1020E4009A600368D960F8E710B40368D9B210396C
:1020F4000A4AA2FB01421209094CA25CC2655F298B
:1021040007D96FF3090304338365806D5DF8044BCD
:1021140070476FF309038365F7E700BFABAAAAAA68
:1021240040D70308836A826992B9012B0AD0022B33
:1021340002D00BB100207047C36A13F0807F28D10E
:1021440000207047C36AB3F1C07F24D000207047D9
:10215400B2F5005F09D0022B25D9032B25D1C36A20
:1021640013F0807F23D100207047032B03D8DFE8CE
:1021740003F01404140A00207047C36A13F0807F2C
:102184000DD100207047C36AB3F1C07F09D000208D
:1021940070470120704701207047012070470120DB
:1021A40070470120704701207047002070470120CC
:1021B4007047000070B5044600F060FA002C5BD054
:1021C4000546022384F83530002384F8343022682D
:1021D400136823F00103136023681A6812F0010FD7
:1021E4000AD000F04BFA431B052BF5D92023636575
:1021F400032084F8350070BD1A68204911406268D4
:10220400A0680243E0680243206902436069024314
:10221400A0690243E0690243206A02430A43616AF7
:1022240004291ED01A602668756925F00705636ABB
:102234001D43042B07D1A36A1D43E36A1BB1204647
:10224400FFF770FF90B975612046FFF74DFFE26D0F
:102254003F239340836000206065012384F8353078
:10226400C9E7E16A206B01430A43DBE74023636566
:10227400012084F83500BEE70120BCE73F8010F060
:1022840038B50446856D90F8340001282BD0012020
:1022940084F8340094F83500C0B2012804D0002337
:1022A40084F83430022038BD022084F83500002040
:1022B40060652046FFF702FFE26D3F239340AB6069
:1022C4002268136843F016031360236C23B1226859
:1022D400136843F0080313602268136843F0010392
:1022E40013600020DFE70220DDE790F83530DBB231
:1022F400022B03D08023436501207047052380F817
:1023040035300268136823F001031360002070471E
:10231400F0B583B0044600230193724B1D68724BE1
:10232400A3FB0535AD0A876D3E68C26D0823934053
:10233400334210D003681A6812F0040F0BD01A68E5
:1023440022F004021A60C26D08239340BB60436DFF
:1023540043F001034365E26D01239340334209D006
:102364002268526912F0800F04D0BB60636D43F0A1
:1023740002036365E26D04239340334209D022686B
:10238400126812F0020F04D0BB60636D43F00403C3
:102394006365E26D10239340334224D022681268AF
:1023A40012F0080F1FD0BB6023681A6812F4802F44
:1023B4000DD01B6813F4002F04D1236C9BB120466D
:1023C400984710E0A36C73B1204698470BE01A6855
:1023D40012F4807F03D11A6822F008021A60236C79
:1023E4000BB120469847E26D20239340334255D0E9
:1023F4002268126812F0100F50D0BB6094F8353088
:10240400DBB2052B0ED023681A6812F4802F33D068
:102414001B6813F4002F2AD1636C002B3ED0204696
:1024240098473BE02268136823F016031360226880
:10243400536923F080035361236CA3B122681368AA
:1024440023F008031360E26D3F239340BB60012334
:1024540084F83530002384F83430236D002B3FD0CA
:10246400204698473CE0A36C002BE7D1EBE7E36BF5
:10247400A3B12046984711E01A6812F4807F09D16D
:102484001A6822F010021A60012384F83530002300
:1024940084F83430E36B0BB120469847636DFBB18D
:1024A400636D13F0010F17D0052384F835302268CB
:1024B400136823F001031360019B01330193AB42C2
:1024C40004D823681B6813F0010FF5D1012384F8A5
:1024D4003530002384F83430E36C0BB12046984740
:1024E40003B0F0BD24000020B5814E1B002807DB9B
:1024F40000F01F02400901239340024A42F82030B1
:10250400704700BF00E100E0002808DB0901C9B200
:1025140000F1604000F5614080F80013704700F05E
:102524000F000901C9B2014B1954704714ED00E0C2
:1025340000B500F00700C0F1070CBCF1040F28BF80
:102544004FF0040C031D062B0FD9C31E4FF0FF3EA2
:102554000EFA0CF021EA000199400EFA03FE22EA79
:102564000E0241EA02005DF804FB0023EEE70000DE
:10257400074AD36823F4E0631B041B0C000200F435
:10258400E060034343F0BF6343F40033D360704718
:1025940000ED00E010B50446054BD868C0F30220F6
:1025A400FFF7C6FF01462046FFF7AEFF10BD00BF90
:1025B40000ED00E008B5FFF799FF08BD0138B0F160
:1025C400807F0BD24FF0E0235861054AF02182F856
:1025D40023100020986107221A6170470120704778
:1025E40000ED00E010B504460E4B1A784FF47A73F0
:1025F400B3FBF2F30C4A1068B0FBF3F0FFF7DEFF15
:1026040068B90F2C01D901200AE0002221464FF0BD
:10261400FF30FFF7BFFF054B1C60002000E00120E6
:1026240010BD00BF1C00002024000020200000205A
:1026340008B50B4B1A6842F400721A601A6842F427
:1026440080621A601A6842F480721A600320FFF7ED
:102654008FFF0F20FFF7C6FFFEF7C0FB002008BD69
:10266400003C0240034A1168034B1B780B4413607F
:10267400704700BF680100201C000020014B18684F
:10268400704700BF68010020034AD2F8883043F441
:102694007003C2F88830704700ED00E0DFF834D0F2
:1026A400FFF7F2FF0C480D490D4A002302E0D4580D
:1026B400C4500433C4188C42F9D30A4A0A4C002388
:1026C40001E013600432A242FBD300F019F8FEF7D4
:1026D40087F9704700000220000000202800002035
:1026E40068D70308280000206C010020FEE702449C
:1026F4000346934200D1704703F8011BF9E7000039
:1027040070B50D4D0D4C641BA4100026A64209D1D2
:102714000B4D0C4C00F018F8641BA4100026A642C4
:1027240005D170BD55F8043B98470136EEE755F8DE
:10273400043B98470136F2E760D7030860D70308E3
:1027440060D7030864D70308F8B500BFF8BC08BC19
:102754009E467047F8B500BFF8BC08BC9E4670475B
:10276400000100000001000000010000409C000086
:10277400409C0000409C000053696E65000000000E
:10278400536177746F6F746800000000547269615C
:102794006E67756C617200005069616E6F000000B5
:1027A40047756974617200004472756D0000000021
:1027B40000000300060009000C000F0012001500C1
:1027C40019001C001F002200250028002B002E00E9
:1027D4003200350038003B003E0041004400470011
:1027E4004B004E005100540057005A005D00600039
:1027F400640067006A006D00700073007600790061
:102804007D0080008300860089008C008F00920088
:10281400960099009C009F00A200A500A800AB00B0
:10282400AF00B200B500B800BB00BE00C100C400D8
:10283400C800CB00CE00D100D400D700DA00DD0000
:10284400E100E400E700EA00ED00F000F300F60028
:10285400FA00FD0000010301060109010C010F014A
:102864001301160119011C011F0122012501280170
:102874002C012F013201350138013B013E01410198
:10288400450148014B014E015101540157015A01C0
:102894005E016101640167016A016D0170017301E8
:1028A40077017A017D0180018301860189018C0110
:1028B4008F018C0189018601830180017D017A01E8
:1028C4007701730170016D016A016701640161019F
:1028D4005E015A015701540151014E014B01480157
:1028E400450141013E013B013801350132012F010F
:1028F4002C012801250122011F011C0119011601C7
:1029040013010F010C010901060103010001FD007F
:10291400FA00F600F300F000ED00EA00E700E4003E
:10292400E100DD00DA00D700D400D100CE00CB00F6
:10293400C800C400C100BE00BB00B800B500B200AE
:10294400AF00AB00A800A500A2009F009C00990066
:10295400960092008F008C0089008600830080001E
:102964007D0079007600730070006D006A006700D6
:10297400640060005D005A005700540051004E008E
:102984004B004700440041003E003B003800350046
:1029940032002E002B002800250022001F001C00FE
:1029A4001900150012000F000C00090006000300B6
:1029B400C800CC00D100D600DB00E000E500EA004E
:1029C400EE00F300F800FD00010106010B010F0108
:1029D400140118011D01210126012A012E013201D1
:1029E40036013A013E01420146014A014E015101BC
:1029F400550158015B015F016201650168016B01CA
:102A04006D0170017301750177017A017C017E010A
:102A140080018201830185018601880189018A017F
:102A24008B018C018D018E018E018E018F018F012E
:102A34008F018F018F018E018E018E018D018C011A
:102A44008B018A0189018801860185018301820144
:102A540080017E017C017A017701750173017001A7
:102A64006D016B016801650162015F015B01580141
:102A7400550151014E014A01460142013E013A010C
:102A8400360132012E012A01260121011D011801FE
:102A940014010F010B0106010101FD00F800F30010
:102AA400EE00EA00E500E000DB00D600D100CC0037
:102AB400C800C300BE00B900B400AF00AA00A5005E
:102AC400A1009C00970092008E0089008400800081
:102AD4007B00770072006E006900650061005D0094
:102AE4005900550051004D004900450041003E0089
:102AF4003A003700340030002D002A00270024005B
:102B040022001F001C001A001800150013001100F9
:102B14000F000D000C000A00090007000600050064
:102B24000400030002000100010001000000000095
:102B34000000000000000100010001000200030089
:102B4400040005000600070009000A000C000D003F
:102B54000F0011001300150018001A001C001F00BC
:102B64002200240027002A002D0030003400370002
:102B74003A003E004100450049004D005100550017
:102B840059005D006100650069006E007200770005
:102B94007B008000840089008E00920097009C00D6
:102BA400A100A500AA00AF00B400B900BE00C30094
:102BB40000000100030004000600070009000A00E9
:102BC4000C000E000F001100120014001500170075
:102BD40019001A001C001D001F0020002200230001
:102BE4002500270028002A002B002D002E0030008D
:102BF4003200330035003600380039003B003C0019
:102C04003E004000410043004400460047004900A4
:102C14004B004C004E004F00510052005400550030
:102C2400570059005A005C005D005F0060006200BC
:102C340064006500670068006A006B006D006E0048
:102C440070007200730075007600780079007B00D4
:102C54007D007E0080008100830084008600870060
:102C640089008B008C008E008F00910092009400EC
:102C74009600970099009A009C009D009F00A00078
:102C8400A200A400A500A700A800AA00AB00AD0004
:102C9400AF00B000B200B300B500B600B800B90090
:102CA400BB00BD00BE00C000C100C300C400C6001C
:102CB400C800C900CB00CC00CE00CF00D100D200A8
:102CC400D400D600D700D900DA00DC00DD00DF0034
:102CD400E100E200E400E500E700E800EA00EB00C0
:102CE400ED00EF00F000F200F300F500F600F8004C
:102CF400FA00FB00FD00FE000001010103010401D4
:102D04000601080109010B010C010E010F0111015B
:102D1400130114011601170119011A011C011D01E7
:102D24001F012101220124012501270128012A0173
:102D34002C012D012F0130013201330135013601FF
:102D440038013A013B013D013E014001410143018B
:102D540045014601480149014B014C014E014F0117
:102D64005101530154015601570159015A015C01A3
:102D74005E015F016101620164016501670168012F
:102D84006A016C016D016F017001720173017501BB
:102D9400770178017A017B017D017E018001810147
:102DA400830185018601880189018B018C018E01D3
:102DB400390FC800C800C800C800C800C800C8004F
:102DC400C800C800C800C800C700C700C700C800C2
:102DD400C800C800C700C800C800C700C800C700B2
:102DE400C800C700C800C800C700C700C700C700A4
:102DF400C700C700C800C700C800C800C800C80092
:102E0400C800C700C800C800C700C800C700C70082
:102E1400C700C800C800C700C800C800C7008D00AC
:102E24002700C700FB00AC00AC00FC000D019C00B7
:102E34009B000101FD00AA00C600340114019300A7
:102E4400C2006401410174001A009500EE0095006F
:102E54007E00D700FC00B7009600F3000C01AF0021
:102E6400AB0001011F01BA00B10048016801BC00B8
:102E740025005D00C6009E007A00C200FE00BE0070
:102E84008300CB000301C0009800E9002501CD00B8
:102E94008E00FD006101FF005F006300C200BE0000
:102EA4008C00B600FB00D3009000C1000B01DC00D5
:102EB4009200CA002201EE009200D30056012F01B5
:102EC4008E0054009D00B6008D00A400EA00DB00D3
:102ED4009100A600F600E5009400AE001301050180
:102EE4009900A00024014201C20069009700C000BB
:102EF4009D009E00DF00E900A600A100EF00FA009B
:102F0400A8009A00F9001601B6009200FE004801DC
:102F1400EF0081008800B3009D009200CC00ED001A
:102F2400B3009200D300FA00B8008E00DB00180151
:102F3400D1008A00CE0030010B01A2008E00B40043
:102F4400A9009200C000F000C9009600C40001016D
:102F5400D7009300BC000E01EF009B00B4001A01DF
:102F64002101C3009300AB00AA008D00AC00E9006E
:102F7400D7009800AA00F200E7009B00A400FC0020
:102F84000401AE009C00F5002101DE00A200AD00AA
:102F9400B30092009F00E100E700A8009C00E3005A
:102FA400F900B3009800E1000C01CB009900D700B0
:102FB4001C01FA00B600AD00B40093008C00CB00F5
:102FC400EE00BB009300C800F800C8009600C600DD
:102FD4000701E300A000BC0006010401C900B5001C
:102FE400BD00A0008900BA00EF00CF009700B50033
:102FF400F300DE009F00B100F800F500B100AE0060
:10300400F1000701DB00C000C600AB008500A20090
:10301400E500DF00A200A300E100E800AA00A00090
:10302400E300FD00C600A800D600FC00E300C700D2
:10303400CB00B9008E009600D600E800B3009F00D4
:10304400D400F000BD009B00CE00FE00DC00AC000C
:10305400C400F200EC00D200D000C50097008B0041
:10306400C300EA00C3009B00BE00EC00CF00A00038
:10307400BB00F400EA00B700B700E100EA00D500A5
:10308400D300D100A8008900B200E900D600A30053
:10309400B000E000DB00B200B400DC00E800CD00CA
:1030A400BE00CE00DD00E000E000D300AB009100E4
:1030B400AB00D600D500B500B200D000D700BD00EB
:1030C400B400CE00E100D400C500C900D200D9008C
:1030D400E200DF00BC0095009D00CA00D900BF00DB
:1030E400B000C800DA00C800B600C500DB00D80094
:1030F400C900C900CE00D200DF00EA00D200A1005E
:103104009200B800D800C900B200BE00D500CE00BD
:10311400BA00BE00D200D800CF00CB00CB00CA005A
:10312400D600EA00E200B3009300A900D000D10069
:10313400B900B900D000D300C000BA00C900D4005F
:10314400D200CE00CC00C700CE00E500ED00C800E0
:103154009C009E00C400D300C100B600C700D2008A
:10316400C700BB00C100CD00D100D100D000C70012
:10317400C500D900ED00DB00AD009C00B700D10014
:10318400C900B900C200D100CB00BE00BF00CA0014
:10319400CD00CF00D100CC00C400CE00E700E60093
:1031A400BF009F00AA00C800CD00BE00BF00CC0035
:1031B400CE00C300BF00C700CC00CE00D100D000B9
:1031C400C500C500DC00EB00D000A800A500C000CD
:1031D400CD00C200BE00CA00CF00C600C200C700B6
:1031E400C900C900D100D500C900C100D200E9005E
:1031F400DD00B500A300B500C800C500BE00C600D0
:10320400CC00C800C100C400C800C700CD00D50070
:10321400CE00BF00C800E200E500C500A800AF0072
:10322400C200C700C100C400CD00CB00C500C70068
:10323400C900C600C900D300D300C400C100D70030
:10324400E600D300B200AA00BB00C500C200C10062
:10325400C800CA00C700C700C900C700C700CF0024
:10326400D500CB00C100CC00E000DD00C000AF0001
:10327400B600C200C300C100C600CA00C800C7002F
:10328400C900C800C500CB00D400D000C400C600EB
:10329400D800DE00CB00B600B400BE00C200C100FE
:1032A400C600CA00C800C600C800C900C500C600E0
:1032B400D000D100C700C100CF00DE00D500BE00A1
:1032C400B400BB00C200C200C500CB00CA00C600E7
:1032D400C700CB00C800C400CB00D200CC00C100A2
:1032E400C900DA00D900C700B800B800BF00C100A7
:1032F400C500CB00CB00C500C500CA00C900C4008E
:10330400C700D100CF00C400C400D400DB00CD004E
:10331400BC00B900BD00BE00C300CD00CE00C70094
:10332400C500CB00CA00C300C400CF00D200C8004F
:10333400C200CD00D900D100C200BB00BB00BB005D
:10334400BF00C900CF00C900C500C900CB00C4003C
:10335400C200CC00D200CA00C300CA00D500D3000A
:10336400C700C000BC00B900BB00C500CE00CC0043
:10337400C700C800CB00C600C200C900D100CE00FF
:10338400C600C700D200D400CB00C300C000BB00FD
:10339400BA00C100CB00CD00C700C700CA00C700F7
:1033A400C200C500CE00CF00C800C600CD00D200C8
:1033B400CD00C700C200BD00B900BE00C800CB00EC
:1033C400C800C600CA00CA00C400C400CC00D000B3
:1033D400CC00C900CC00CF00CE00CA00C500BF009D
:1033E400BA00BC00C600CB00C900C500C800C900B3
:1033F400C600C400C800CD00CD00CA00CB00CC007C
:10340400CE00CC00C700C100BB00BC00C300C90093
:10341400CA00C700C800CA00C700C400C600CC0068
:10342400CD00CB00C900CB00CD00CD00CA00C40044
:10343400BE00BD00C100C700C900C800C900C90062
:10344400C800C500C600CA00CD00CC00C900C80031
:10345400CA00CC00CA00C500C000BD00BF00C40043
:10346400C900CA00C900C900C900C700C500C80016
:10347400CD00CD00CA00C700C900CC00CC00C800F4
:10348400C200BF00BF00C200C700C900C800C90015
:10349400CA00C900C600C700CB00CD00CA00C700DF
:1034A400C800CA00CC00CA00C600C100BF00C200E8
:1034B400C600C800C700C800CA00C900C600C600CC
:1034C400CA00CD00CB00C800C700C900CB00CA00A9
:1034D400C700C400C100C100C500C800C700C600C1
:1034E400C900CA00C700C500C800CD00CD00C9008E
:1034F400C700C900CA00CA00C900C600C200C10092
:10350400C400C800C700C600C800C900C700C40082
:10351400C600CB00CD00CA00C800C900C800C9005D
:10352400CB00C900C300C100C400C800C700C50067
:10353400C800CA00C700C300C500CA00CC00CA0046
:10354400CA00C900C800C800CB00CB00C500C10038
:10355400C300C700C700C500C700CA00C800C40034
:10356400C300C700CA00CB00CA00C900C900C80014
:10357400CA00CB00C800C400C300C600C700C50011
:10358400C600C900C900C600C400C700C900C900FC
:10359400CA00CB00C800C700C800CB00CA00C500E1
:1035A400C400C600C700C500C600C900C900C700E2
:1035B400C600C600C700C700C900CB00CA00C700C8
:1035C400C600CA00CA00C600C500C700C700C400C0
:1035D400C500C800C900C700C700C900C900C800A9
:1035E400C800CA00CB00C700C600C900CB00C80091
:1035F400C500C500C700C500C400C600C800C70098
:10360400C600C900CA00C800C700C900CB00C80072
:10361400C500C700CB00CA00C700C600C600C6006C
:10362400C500C500C600C600C700C800C900C9005F
:10363400C700C800CA00C900C600C600CA00CB0043
:10364400C800C600C700C800C600C500C600C80040
:10365400C700C700C900C900C700C600C900CB0025
:10366400C800C500C700CB00CA00C600C600C80019
:10367400C800C600C500C700C800C700C800C9000C
:10368400C700C500C700CB00C900C500C600CB00F9
:10369400CC00C800C600C700C800C600C500C600EC
:1036A400C700C700C800C900C700C400C500C900DE
:1036B400C900C600C500CA00CC00C900C700C800C4
:1036C400C900C600C500C700C800C700C700CA00BB
:1036D400C900C500C300C800CA00C700C500C800AF
:1036E400CB00CA00C700C800C800C800C600C70095
:1036F400C900C700C600CA00CB00C600C300C6008C
:10370400CA00C800C500C600CB00CB00C800C70073
:10371400C900C800C600C600C800C800C600C8006A
:10372400CB00C800C300C500C900C900C500C6005D
:10373400CA00CA00C700C700C900C900C600C50046
:10374400C800C800C600C800CA00C900C500C5003A
:10375400C900C900C600C600C900CA00C700C70026
:10376400C900C900C600C500C700C800C600C7001C
:10377400C900C900C600C500C800CA00C800C70007
:10378400C900CA00C800C700C800C800C700C600F6
:10379400C700C700C600C700C900C900C600C500ED
:1037A400C700C900C800C700C900CA00C700C600D6
:1037B400C700C900C800C700C700C800C800C800C7
:1037C400C900C800C700C600C600C700C700C800BB
:1037D400C900C900C800C700C600C700C700BD00B3
:1037E400C200CA00C600C200C900CD00C800C4009F
:1037F400C600CB00C700C600CE00CE00C800C5007E
:10380400CE00D400C700BC00BF00C900C900C2007C
:10381400C700CC00C900C500C700CD00C800C40063
:10382400CA00CE00CA00C400CB00D300CB00BF0046
:10383400BC00C400C700C400C600CB00CA00C4005A
:10384400C500CB00CA00C500C700CD00CC00C40031
:10385400C600CF00D000C400BD00C300C800C6002D
:10386400C600CB00CC00C600C500CB00CC00C50010
:10387400C400CB00CD00C600C400CD00D100C800F8
:10388400BE00BF00C500C500C500C900CB00C6000E
:10389400C300C900CC00C600C300CA00CF00C800E2
:1038A400C200C800D000CC00C200C000C500C600E1
:1038B400C500C800CB00C800C300C700CC00C900C5
:1038C400C300C700CE00CC00C300C600CF00CE00AA
:1038D400C500C000C300C500C300C600CB00C900BA
:1038E400C300C500CB00CA00C300C500CE00CD0094
:1038F400C500C400CC00CF00C800C200C400C6008C
:10390400C400C600CB00CA00C400C400CB00CC0075
:10391400C500C400CC00CF00C700C300CA00D0005B
:10392400CA00C400C400C500C300C300C900CB0062
:10393400C500C200C900CC00C600C300C900CF0046
:10394400C800C200C700CE00CC00C600C500C70036
:10395400C400C200C800CC00C800C300C700CC002B
:10396400C900C400C700CD00CB00C400C500CB0013
:10397400CD00C800C600C600C400C200C600CA000C
:10398400C800C300C500CB00CA00C500C600CC00F7
:10399400CD00C600C400C800CB00C900C700C700E2
:1039A400C500C300C500CA00C900C400C400CA00E1
:1039B400CC00C600C400CA00CD00C900C400C600C3
:1039C400CB00CA00C800C700C600C300C400C900B9
:1039D400CA00C600C400C900CC00C800C500C800A5
:1039E400CC00CA00C500C500C900CB00C800C70090
:1039F400C600C400C300C700CA00C700C400C60094
:103A0400CB00CA00C600C600CB00CB00C600C50070
:103A1400C900CB00C900C800C700C500C300C50069
:103A2400C900C800C400C400CA00CB00C600C4005A
:103A3400C900CC00C800C500C700CB00CB00C9003A
:103A4400C800C600C300C400C800C900C500C40043
:103A5400C900CB00C700C400C600CA00C900C60024
:103A6400C600C900CC00CB00C900C700C400C40014
:103A7400C700C800C700C600C700CA00C900C60006
:103A8400C600C800C900C700C600C700CA00CC00F1
:103A9400CB00C800C500C400C600C800C700C500EC
:103AA400C700C900C900C600C500C700C900C800D6
:103AB400C700C700C900CB00CB00C900C600C400C2
:103AC400C600C800C700C500C600C900C900C700B9
:103AD400C600C700C900C800C700C700C800C900A5
:103AE400CB00CA00C700C400C500C700C700C60099
:103AF400C600C800C900C800C600C700C800C90085
:103B0400C800C800C800C800CA00CB00C800C5006F
:103B1400C400C600C700C600C600C700C800C8006D
:103B2400C700C700C800C800C900C900C800C70052
:103B3400C900CB00C900C500C500C600C700C60047
:103B4400C600C800C800C700C700C700C700C70038
:103B5400C800C900C800C700C800CA00CA00C7001E
:103B6400C500C600C600C600C600C800C900C7001C
:103B7400C600C700C800C700C700C900CA00C80003
:103B8400C700C900CA00C800C600C600C600C600F7
:103B9400C600C800C900C800C700C800C800C700E4
:103BA400C600C800C900C900C800C900CA00C900CD
:103BB400C700C600C600C600C600C700C800C800CB
:103BC400C700C700C800C700C600C700C800C900B6
:103BD400C700C700C900CA00C800C600C600C700A5
:103BE400C700C700C800C800C700C700C900C80094
:103BF400C600C600C800C900C700C600C800CA0085
:103C0400C800C600C600C600C600C700C800C90078
:103C1400C700C700C800C900C700C600C700C90064
:103C2400C800C700C800CA00C900C700C600C70052
:103C3400C700C700C800C900C800C700C700C80043
:103C4400C800C600C600C900C900C700C700C90033
:103C5400CA00C700C600C700C700C600C600C90026
:103C6400C900C700C500C700C900C700C600C80016
:103C7400CA00C900C700C800C900C800C600C60001
:103C8400C700C700C600C800CA00C800C600C700F5
:103C9400C900C800C600C700CA00CA00C700C700E0
:103CA400CA00C900C600C600C700C700C500C700D7
:103CB400CA00C900C600C600C900C800BE00420050
:103CC4009300C200B200D8000601C500B600B600D9
:103CD4008F00BE001A010A019200A400F20008013C
:103CE400FF00190104019C00A90085006000B500D3
:103CF4001101F5009000AC00E000AD00A500E0006B
:103D0400EF00F100E500A300B20020015201E80039
:103D1400A100D200B20067007A00AA00C400E0004B
:103D2400DC0094008300D800EF00B500C400EC0070
:103D3400CB00B600D900F20000011301DD007D00C4
:103D44009000CE00A6008800DE001201D000990089
:103D5400A600BC00DF00F600C700AB00E900FC00D1
:103D6400BE00CB0019010A01BC009C008E00850036
:103D7400B800DD00B700B300E300C6008300A8006C
:103D8400F300EC00C700BD00B200C800FD00F40061
:103D9400CC00E900F90097005D00A500E500D6001D
:103DA400CC00CF00BA00BC00CA00B300BB00F900CD
:103DB400F200A300A400EC00FE00EC00EE00D3002F
:103DC400A800AB00A4008300AE000101EB009B003F
:103DD4009E00C900C500C200D000C600CB00DC00B4
:103DE400BC00A900F5002501DD009F00B500B60068
:103DF4009900AF00D500D600DC00D3009F009C00E2
:103E0400E100EE00B700B700DA00CE00C500E20022
:103E1400EC00EC00F900CB0079008800D300CF005F
:103E2400AB00CA00E500C300AB00B100B600D5008A
:103E3400ED00BF009C00D200F800D500D100F800CE
:103E4400E400AA009C00A100A900D800EF00C20071
:103E5400B000D500CA009D00B500E500DB00C60037
:103E6400C100BA00D4000801F700B900C100D900AC
:103E7400A5008100B700E600D900C900B900A70079
:103E8400BF00DB00C000B100DD00E200AE00B40002
:103E9400EB00F400E200D900B9009C00B300C200BA
:103EA400AD00C400F500DC00A000AB00CD00CD00E7
:103EB400CF00D000BD00C400E400D200BD00ED007E
:103EC4000C01CA009300A900BA00B500C600CF00D7
:103ED400C100CB00CF00A800A600E000E900B800B4
:103EE400B600D400D000D100E800E000CE00D60037
:103EF400BF008D00A200DE00D600B400C600D500CD
:103F0400C000BC00C300BE00D100E700C100A30094
:103F1400D9000201DC00C600DB00CD00A900A90025
:103F2400AF00B200D600E500B700A800D100D2006F
:103F3400B500C000D600D000C600C500C900E0002E
:103F4400F300DC00B600B300BE00B300A700B90064
:103F5400D900E000C900B200B900D300D700C10005
:103F6400BA00CD00DB00CF00C700DA00EE00E200AB
:103F7400BE00A500AB00BB00BD00BA00C600D70060
:103F8400D100BB00B300C300D500D000C000BE0008
:103F9400D100DB00D400D100DD00DF00C300A300AA
:103FA400A100BC00D000CA00C300CA00D400C800ED
:103FB400B600BA00D100DB00C900BA00C700DE00B9
:103FC400E400D700CE00CD00C500B100A300B100CD
:103FD400CD00D700CA00BE00C400CA00C200BB00A6
:103FE400C300D300D300C400C100D500E600DD0047
:103FF400C600BD00C000BA00AD00B200CA00DE00B9
:10400400D500BE00B900C600CF00C400BD00C90081
:10401400D600D100C800CE00DE00E300D000B70017
:10402400B100BC00BF00BB00C100D100D500C60078
:10403400B700BA00CA00D000C500BD00CA00D6004F
:10404400D000CA00D400DE00D200B900AC00B50034
:10405400C600CA00C400C700D300D000BF00B90026
:10406400C500D100CE00C200BF00CE00DD00DA00E2
:10407400CD00CD00D100C300AE00AE00C200D2001E
:10408400CF00C500C300CC00CB00BE00BC00C900FB
:10409400D100C600BE00CA00DB00DD00D000C400B1
:1040A400C100C100B900B200BC00D000D700CB00F1
:1040B400C000C400CD00CB00C000BE00C900D100C8
:1040C400CB00C600D300DF00D700C300B900BD0099
:1040D400C000BC00BC00C800D600D200C100BD00B6
:1040E400C600CA00C300BF00C600D000D200CD0085
:1040F400CC00D400D600C700B600B600C000C5008E
:10410400C400C600CE00D400CD00BE00BB00C70072
:10411400CC00C500C200CD00D600D200CB00CC003C
:10412400D000CB00BC00B300BA00C800CB00C7006D
:10413400CB00D100CC00BF00BA00C100CC00CD0040
:10414400C700C600D000D700D100C900C800C8000D
:10415400BF00B500B600C400D100D100C700C5003F
:10416400CA00C600BD00C000CB00D100CC00C60010
:10417400CB00D500D600CC00C200C200C200BB00F8
:10418400B800C200D000D200CA00C200C300C700F9
:10419400C700C200C400CD00D100CC00AC00630055
:1041A400B300D200AB00A300CA00ED00C100C200FE
:1041B400E700F400D500D500F800DA00AC00E20016
:1041C40043012301A2005A008B00C3009D00950007
:1041D400C000E100D100B900D900EA00D100D90043
:1041E400EC00E900BD00CC002C013601D0006B00CE
:1041F4007300AA0098008600AB00D900D000B1007B
:10420400C500DD00CE00C400DE00EF00C800B3002E
:10421400F3002B01FA009A008400AA00B3009F0067
:10422400AE00D200D500BF00CD00E500D500BB0034
:10423400D400F500DA00B300DC0028011701B50052
:104244007C009500AB009D00A200C000CB00B9002B
:10425400C000DB00D600BB00C100E600E100B300F3
:10426400BA0004012101DD0094009200AC00AB000F
:10427400AC00BE00CA00BF00C500E000E000C20000
:10428400BE00E300EB00BE00AC00EC002501FD0025
:10429400AB009000A200A600A000B200C600C000BF
:1042A400B800CC00DC00C900BB00D600ED00CD0096
:1042B400A200C3000A010F01CF00A100A300A800BF
:1042C400A300B000C600C700BE00CB00DD00D000D4
:1042D400BB00CC00F000E300B300B500F200110114
:1042E400E800B600A900A8009F00A600BD00C40015
:1042F400BA00C100D900D500BA00B900E100EE004F
:10430400C600AB00D1000001F400C500B000AF004E
:10431400A700A700B900C300BA00BC00D700E000A2
:10432400C500B400D200EE00D700B600C900F60004
:10433400FA00D500B900B100A500A200B600C6007D
:10434400B900AF00C800E300D100B300C000E6002C
:10435400E100BC00BA00E600FC00E200C200B300C9
:10436400A900A300B400C800C000AF00BE00DE0076
:10437400D900BA00BA00D900E300C700BB00DA00D4
:10438400F800EE00D100BD00AC009D00A800C500FF
:10439400C900B400B400D300DC00C200B500CF00F3
:1043A400E500D200B800C500E700F100E000CA0053
:1043B400B5009F00A000BC00CB00BD00B400CA0043
:1043C400DE00CC00B600C400E300E000C100BB0086
:1043D400D700EE00E900D600C100A9009D00AF009F
:1043E400C500C100B400C000D700D100BA00BB00B2
:1043F400D900E400CD00BC00CA00E000E400DC0009
:10440400CF00B600A200AB00C300C400B500BA00E0
:10441400D400DA00C100B500CA00E200D900C5002A
:10442400C600D700DF00DC00D500C200AB00AA0044
:10443400BF00C600B500B000C900DB00C900B5006C
:10444400C000DA00DC00CB00C700D300DA00D900DA
:10445400D800CB00B200A800BA00CB00BE00AF0069
:10446400BE00D800D300BB00B900CF00DA00D000F2
:10447400CA00CF00D600DB00DE00D400B700A400E1
:10448400B200CC00C900B500B500CC00D500C30013
:10449400B900C600D400D100CA00CD00D100D700B5
:1044A400DF00DF00C400A500A700C200CD00BE00ED
:1044B400B600C600D400C900BA00C000D100D300C1
:1044C400CC00CB00CE00D100DC00E600D600B30067
:1044D400A300B500C800C200B700BF00D100D000DF
:1044E400BF00BA00C700D100D100CD00CB00CA0084
:1044F400D500E500E300C300A900AF00C200C4007A
:10450400B900BD00CE00D400C700BD00C200CA007F
:10451400CE00D000CF00C900CB00DB00E600D10004
:10452400B300AB00BC00C600BB00B500C300D300A1
:10453400CE00C100C000C700CB00CF00D200CC0029
:10454400C600D200E200DB00BC00AE00BB00C80025
:10455400C000B500BE00CE00D100C800C200C40037
:10456400C700CC00D300D100C800CD00DD00DE00C0
:10457400C600B200B800C700C500B900B900C50044
:10458400CB00C800C600C600C300C600D000D300DC
:10459400CB00C900D800E000CF00B400B100C300D4
:1045A400CB00C200BC00C100C700C900CA00C800DB
:1045B400C400C400CD00D300CC00C800D200E10088
:1045C400D700BB00AF00BC00C900C600BF00C200DA
:1045D400C600C600C600C900C600C200C800D1009B
:1045E400CF00C600CA00DB00DE00C800B300B5007F
:1045F400C300C700C300C400C700C800C800C90086
:10460400C500C100C600D100D100C700C500D30059
:10461400DE00D300BD00B600BE00C400C200C2006C
:10462400C600C800C900CA00C700C000C000CD0051
:10463400D400CB00C100C900DA00D900C500B7001E
:10464400BC00C500C300C200C500C700C700CB0042
:10465400CC00C300BE00C800D300CF00C400C70014
:10466400D600DB00CD00BE00BC00C300C500C40002
:10467400C300C200C300C900D000C900A200DB000F
:10468400BF00C000EF00A000CA00F900AE00DE00C9
:10469400C1009A00F400B200BD00E8009B00D20003
:1046A400E600B100E800B400B000EE00A200CB00C8
:1046B400ED00AD00E800CA00A600E200AA00BF00B9
:1046C400ED00A800D100C900A900F900C100AD00A7
:1046D400EB00B200CA00CE00A000EF00D700B40087
:1046E400E100A100BC00E500A700D900D000A500AE
:1046F400E600BE00BB00E400AE00DD00DC009C0070
:10470400DE00C900BB00F300B700C300D1009B006A
:10471400DC00D400AF00E000B100C500EE00A4004E
:10472400CA00DC00B800E600B800B100EA00B60038
:10473400D200DB009C00D100C400B000E600B4004D
:10474400C100E400AE00D400CA00AE00ED00C20017
:10475400BB00E900B300CE00D900AF00DE00BA0010
:10476400AA00E400B400C300D900AC00E100D10009
:10477400A700DD00BE00C600E300AF00DA00DA00E7
:10478400AD00DE00BA00AC00DD00B500CA00D20006
:10479400A400DB00D000B700E100B400C400E300D3
:1047A400AD00D500D900B900E500C100BB00D600BA
:1047B400A300CB00DF00AE00D300BE00B700E800CA
:1047C400B900C300DA00B300DB00CC00B400E80099
:1047D400C400C600E200A700BE00CA00B400E100A5
:1047E400BE00B400DF00B400C800D600AE00DC0098
:1047F400CD00B400E000BF00C800E000B600D30064
:10480400C400A600DB00C400BD00DB00B400CE0081
:10481400D400AF00D700C600BD00E100B900CA0053
:10482400DC00B600DA00CE00AF00D100B900C5004C
:10483400DA00AE00CE00D500B600D800BD00BB0043
:10484400DE00B900CB00D600B900DB00C900BC0013
:10485400DB00B200BF00DA00B600CD00C800B7002C
:10486400DC00C100C000D800B300CD00D300B80004
:10487400DB00C700BF00E100BC00C100CC00B700F2
:10488400DB00C700B100D700BF00C400D700B500EB
:10489400CF00CD00B600D600C200C300DE00BD00CC
:1048A400CF00CF00AE00D300CA00BC00D500B900D1
:1048B400C600D300B600D600CD00B800D600BE00B6
:1048C400C300D700B900D300D600B800CD00BC00A7
:1048D400C300DD00B700C500D200B700D300C70095
:1048E400BE00DA00BE00C500D300B600D100D0007F
:1048F400C400D200BF00BD00CE00C600C900C9007C
:10490400C200C600C600C500CC00CA00C400C8006E
:10491400C900C800C800C800CE00CF00C300BF0053
:10492400C400C800CD00C700C200C900C600C6004C
:10493400C800C800CA00C700C500C900C700C90034
:10494400CF00CB00C600C200C000C900C900C60029
:10495400C900C6005A007500C900BF00B500CE00EA
:10496400E300B000A800F000D600CD00F700DD00A1
:10497400BE0012015E01C70054006D00BD009C0022
:10498400A400D500E000CA00C500F300D400CB00A9
:10499400DF00E400C5000B014B01E9006800620080
:1049A400A30091009700CE00D600B000C700E80035
:1049B400CE00C200DF00DC00B100EA003C01FF00D1
:1049C40086007D00A600A500AB00D600DA00B30087
:1049D400C800EC00CF00C300ED00E300B600DE0029
:1049E400320111019B00790099009700A600CF00C5
:1049F400CC00AE00C100DD00C600B700E600E80050
:104A0400AD00C60021011301B2008600A000A5007C
:104A1400AA00CE00D400B500CC00E700C700B60061
:104A2400E200E900B400C2001A011A01BE009000BD
:104A34009C009800A400CC00CE00AD00BE00DF00B6
:104A4400C600B300E200EB00AF00AD00FF001601AA
:104A5400D200A000A3009D00A700CF00D300B700A0
:104A6400C600DF00C200B100E300F800BF00AF00E1
:104A7400F7001001D800AB00A1009800A200CB0001
:104A8400D300B200BD00DE00C400AD00D800F400C5
:104A9400C300A800E4000F01E400B500A5009500E0
:104AA400A100CB00D400B800BF00DF00C700A900FC
:104AB400D600FC00CC00AC00DC000601EB00C30017
:104AC400AF0095009500C500D100B400BB00DA002A
:104AD400C800AB00C900F600D600AF00D300FA004E
:104AE400EC00D200B60099009C00C300D200B500CF
:104AF400BA00E300D000A800C300EF00DB00B4005C
:104B0400CA00F800F200D700C1009D009800C00060
:104B1400CF00B400B000D700D700AE00BC00EC005A
:104B2400D900B400C400E500EB00DE00CB00A60011
:104B34009400C000D900B700B300DA00D600AC007E
:104B4400B300E800E600BC00C400E200E300E000BB
:104B5400D100AB009700B400D300BB008A00DB0097
:104B64000001A500A700FD00DD008D00B700FD00D9
:104B7400DF00D8000201C5006800A100FB00D200DC
:104B8400A100E200F5009A009100EF00E600A70002
:104B9400C700F800D400C300F400D1007600A200DE
:104BA400FC00CB008B00D4000601B6009400E300A7
:104BB400EB00A400B700EC00CB00BF00F800DD0060
:104BC4007B008F00F100D4008F00CF000301B800F8
:104BD4009C00E700EE00AB00BB00F400CE00B50083
:104BE400F500E40081009000F000D7008D00BE00C5
:104BF400FB00BC009800E100F400BA00C000E7002C
:104C0400C700B600F700F4008C008200DB00D60079
:104C14009900C200F900C2009500D100EA00B50075
:104C2400C500FB00D300AC00E900F9009D0085003D
:104C3400DD00DE009200B200F800CB009B00D00043
:104C4400EA00B500B800EC00CF00B100F80008019C
:104C54009D007C00D300E1009E00B600F700CD006B
:104C64009900C900E200B400C000F200CE00A40024
:104C7400E3000901B6008800CB00DC009F00AF0010
:104C8400EE00D500A300C400E100BB00BB00EB00B4
:104C9400D300A800DC000601B8008500C800E900C4
:104CA400A800A800EC00DB00A500C200E000BA00E8
:104CB400B900F200E100A500D0000801C40084009E
:104CC400BB00DF00AE00AD00E700D900A300C000C8
:104CD400DF00B700B600EC00DC00AA00D200090136
:104CE400CE008A00B700DA00AB00AB00E700E300B7
:104CF400B500C000D900B600B000EC00E700A90080
:104D0400C2000201DD009900B200DA00B700A6007B
:104D1400D400D500AE00C500E400BF00AE00DF0043
:104D2400E600AB00BB000101E2009900B000DA002C
:104D3400BA00AA00D900DF00AC00B700DC00BF0055
:104D4400B400EA00EC00AC00B300F500E700A300F7
:104D5400AD00D300B800AF00D800D700B400C00045
:104D6400DE00BE00A800DD00EF00B800B700EE00D2
:104D7400E500AA00AB00CF00BB00AA00D500E0000C
:104D8400B700BD00DD00C600AC00D700F200BC00D7
:104D9400AE00ED00EF00B000AB00CC00BD00AA00F7
:104DA400CE00DB00B300BC00E400C500A500D500C4
:104DB400F500C300AC00E200F000B800B000CC0085
:104DC400B500A700CF00DE00BA00B900D900C700C3
:104DD400AE00CE00E700CB00BD00D600E300CE005D
:104DE400BA00BD00BD00B900C200C600C100C800C1
:104DF400CE00C300B800C700DC00D200C100CE0062
:104E0400DE00D400C100B900BC00C100C800CC0061
:104E1400C400C100C700C300BD00C800D600D30051
:104E2400C700CB00D800D300C300BD00BC00C00045
:104E3400C600C900C700CA00CD00C300B300BE004D
:104E4400D500D300C500C800D700D800C700BD00F6
:104E5400BB00BE00C800CA00C500C500CD00CC0020
:104E6400C000C100D000D100C500C600D000D300EE
:104E7400CA00C300C100BF00C300C700C300C30011
:104E8400CC00C900BD00C100D400D700C700C500D4
:104E9400D000D200C900BF00B900BE00CA00CE00D5
:104EA400C600C100C800C800BE00BE00CE00D600C7
:104EB400CE00CA00CE00D100CE00C600BE00BA00AB
:104EC400C000C900C700C600CC00CB00BF00BB00B7
:104ED400C900D300CC00C700CF00D600CF00C50066
:104EE400BC00BC00C400CB00C600BF00C600CC00A0
:104EF400C500BE00C900D200CE00C700CA00D2005F
:104F0400D300CD00C200B900BE00C900C900C5006D
:104F1400C800CA00C100BB00C600D200CE00C60053
:104F2400CA00D100D200CB00C200BF00C200C7003B
:104F3400C400BF00C500CC00C700C000C600D0003C
:104F4400CF00C700C700CB00CE00CE00C800C00011
:104F5400C100CA00CB00C400C200C700C400BE0028
:104F6400C400D000D000C900C900CD00CD00CB00E2
:104F7400C600BE00C000C900CC00C700C700CD00F9
:104F8400C800BD00BF00CB00CD00CA00C800CA00E5
:104F9400CD00CF00CB00C000BC00C400CA00C600D6
:104FA400C600CC00CB00C400C200C800CB00C600C1
:104FB400C500C900CC00CE00C900C200C200C700B1
:104FC400CA00C600C400C900CA00C500C600CC009F
:104FD400CE00C900C400C600C900CD00CB00C1008A
:104FE400BD00C400CA00CA00C900C900C800C4008A
:104FF400C400C700CA00CC00CA00C700C800CC0067
:10500400CA00C200BF00C400C700C500C700CB006F
:10501400CB00C700C800C900CA00C900C800C60048
:10502400C900CE00CD00C400BF00C300C700C80043
:10503400C800C800C500C300C700BD002900D200D5
:10504400CA006200BD002501BF007B00E400E90046
:10505400E4001201F800D7003D01080139005E00A8
:105064001B01D8005400C5002001960095002701BB
:10507400F7009900F8003601F600DD00AD0050009D
:105084006E00EE00BF007A00E9000A017E00A30072
:105094002001D6008B0015014E01C2007F00AF0035
:1050A40096009D00EE00D1009900E100EB009E0007
:1050B400D1002401CB00A00031012F016E00620059
:1050C400D800B6008700D200D900A000C200EC00CE
:1050D400BC00C100F600D200D8003301E500400056
:1050E4007F00FA00B5008500EE00F9008C00B200E4
:1050F4000D01D100AB00F9000801E000DB00A300C2
:105104006700B000F500A4008700EF00DE00820015
:10511400CD001901BB009E0012011B01B1009A00D1
:10512400B4009D00B700E100B500AB00ED00D20073
:105134009C00DE000201B000C000340101016F00D8
:105144008C00D400A800A300E200CB00A500CB0093
:10515400D900BC00D600EE00C200DB001A01BE007C
:105164005A00AF00F300A7009D00EC00D5009600A4
:10517400D000FF00C100BC00F400ED00DF00E0003F
:105184009D007500C200E7009F00A400F300CA0060
:105194009300E3000201AA00B5001501FF00AE0070
:1051A400A900AE009F00C800E000AC00B000E4001D
:1051B400C000A900F000F600AA00CE002401DE0021
:1051C4007B00A800D000A900B600DD00C000B30039
:1051D400D800CF00B900DB00DE00B900E8000D0103
:1051E400AA007000C600E1009F00B500EF00C100F6
:1051F400A000DF00EC00B900CC00EE00DA00DC0017
:10520400DB0093008400D500DE009C00B900F000B0
:10521400B800A100F200F100A500C5000901E600F4
:10522400B300B900AC00A300D100D600A700BB00B6
:10523400E100BB00B800F100DD00A800E1001501A9
:10524400C6008A00B600C400B100CC00D700AF008D
:10525400B700D800C700C000DF00D100BD00F300D4
:10526400FD009D008900D200D200A700C900E10022
:10527400B100B300E900D800B200D000E600D700C6
:10528400E100CF008E009C00E000CC00A100CE0025
:10529400E500AD00B600F400D400A600D90000017A
:1052A400D400B800B900A500AC00D800CC00B00010
:1052B400CA00D300BB00CF00E800C600B700EC0072
:1052C400FC00C400A000B100BC00BA00C200C700CA
:1052D400C200BF00C600CF00D700CC00BD00D6007E
:1052E400F700DD00A500A300C300C800C200CA0087
:1052F400C800B800C100D400D400C700C600D5005F
:10530400E900E300BA009C00B200CF00C400BD0075
:10531400CE00C700B200CA00DE00C500B500D5004B
:10532400ED00DC00BE00AE00AE00C400CF00C5003E
:10533400C200D300CE00C000CC00D400C000C20024
:10534400EA00EC00C000A700B300BC00C100CB0021
:10535400C900C000C500D000D100CD00C200BF000C
:10536400D500E800D000AC00B000C300C400C40005
:10537400CE00CA00BD00C400D100D100CA00C900DB
:10538400D300E000D900B500A600BC00CC00C400E6
:10539400C700CE00C200BF00D300D300BD00C000D0
:1053A400DD00E600D300BB00AA00AA00C200D200C0
:1053B400C900C500C900C300C500D500D200BC00A7
:1053C400C700EB00E600BE00AB00B000B900C500AA
:1053D400CD00C700C100C800CE00CC00C800C70083
:1053E400CB00DF00E400C900B200B500BF00C1007B
:1053F400C300C800C300C100CB00D100C800C20074
:10540400C700D900E700D500B200AC00C600CF0049
:10541400C300C300C800BD00BD00D000D100C3005C
:10542400C600D700DA00CE00C000B200B400C90044
:10543400D400CF00CC00C800BE00C000CC00C8001F
:10544400BE00CF00E600D800B900B100B900C10029
:10545400C900CD00CC00CA00CB00C700C700CB00F8
:10546400C400C300D900DF00C300AB00B300C10017
:10547400CA00D200D100C400C500D000CD00C500D0
:10548400C500C700CF00DB00CF00B200AE00C300F0
:10549400C800C300CD00D100C300C400D200CF00B7
:1054A400C200C700D300D300CA00BC00AF00B900DB
:1054B400D000D000C500C900CD00C500C600D00092
:1054C400CB00C300D200DD00C900B600B600B900AD
:1054D400C000CC00CF00CA00C700C600C600CC0084
:1054E400CF00C500CA00DC00D700BB00B200BA0080
:1054F400BF00C400CE00CD00C700CA00CC00C60067
:10550400C600CC00CC00D100DA00CA00B200B6005C
:10551400C600C300C300D100CA00B700C400D7004E
:10552400C800C000CE00D800D300C500C300B4003A
:10553400B800D200CF00C300CD00C900C000C8002D
:10554400D100CE00C200CD00D900C700BB00BE0010
:10555400BB00C500CF00CC00C900C300C200C90015
:10556400CA00CB00C600CD00E000CE00B100B700F9
:10557400BE00C000C900D000CE00C500C600CC00EB
:10558400C400C900D000C500CE00DB00C500B400D3
:10559400BB00C800C500C400D300CC00BA00CB00D7
:1055A400D400C400C400CF00D200CC00C300C000AB
:1055B400B900BD00CC00C800C700D100C700C000BE
:1055C400CE00D300CC00C400CC00D200C400BC0088
:1055D400BE00BD00CA00CE00C500C800C700C4009C
:1055E400CA00D000CE00C700CB00D500C600BA0068
:1055F400C200BF00BD00C900CE00C900C300C7007F
:10560400CC00C700CD00D200C700CF00D600C00038
:10561400B300BD00CA00C800C600D000CA00BC0068
:10562400C600CC00C600CB00D100D100CB00C30023
:10563400C300BF00BD00C800C900C800C900C30042
:10564400C700CD00CB00CA00C800CC00D100C70001
:10565400C000C200C500C900C600C400CC00C6001A
:10566400BF00C800CF00CB00C600CD00D400C500E9
:10567400C000C800C000BF00CC00CD00C400C20000
:10568400C700CA00C600CD00CC00C400CD00D000C5
:10569400BF00BC00C900CC00C400C600D100C700D4
:1056A400BA00C600CF00C800C900CD00CF00CC00AE
:1056B400C600C200BE00C300CB00C900C900CA00B6
:1056C400C400C600CB00CA00C900C900CA00C90092
:1056D400C400C300C500C600C800C400C700CE0093
:1056E400C500C000CC00D100C700C200CC00D0006F
:1056F400C300C200C900C300C200CA00C800C4007D
:10570400C600CB00C900C800D000CB00C300CD0048
:10571400CC00BE00C000C900C600C400CC00D1004B
:10572400C100BC00CA00CC00C900CB00CA00CB0039
:10573400CB00C600C200C300C700C600C200CB0035
:10574400CC00C200C600CC00C800C800CA00CB0010
:10575400C800C700C900C200C200CA00C700C50013
:10576400CB00C600C300C900CD00C700C200CD00F5
:10577400D100C400C400CB00C400C100C700CA00EB
:10578400C600C400C900C800C800CE00C900C300D8
:10579400CA00CA00C600C700C900C500C300C900CA
:1057A400CA00C300C600CA00C600C600CA00CA00B8
:1057B400C800C900C800C400C700CA00C400C600AD
:1057C400CD00C700BF00C600CE00CA00C600C90095
:1057D400C900C700C900C800C300C600CA00C7008A
:1057E400C700CB00C800C200C600CB00C600C4007E
:1057F400CB00C600C000C700C900C400C500C90072
:10580400C900C900CB00C900C900CE00C900C2004C
:10581400CB00D600C900BA00BD00C700C700C6004F
:10582400CB00CC00C700C500C900CB00CC00C80029
:10583400C400C700CE00CF00C900C100BD00BF0036
:10584400C400CA00C900C500C600C900CB00CA0014
:10585400C900C900C900C400C600CF00CF00C300FE
:10586400BE00C600CB00C500C500C900C700C60005
:10587400C900CB00C900CA00C900C400C600D000DA
:10588400CF00C500C200C200C000C600CC00C700E3
:10589400C100C700CD00C700C700CE00C800BF00CC
:1058A400C600D200D200C900C200C000C200C800B5
:1058B400C800C500C700CA00C700C600C900CB00A5
:1058C400C900C700C900CC00CD00CA00C300C10094
:1058D400C400C400C700C900C600C500C900C80090
:1058E400C500C900CF00C900C200CA00D200CA0066
:1058F400C200C200C200C300C900CB00C600C5007C
:10590400C900C700C700CE00CE00C400C200CB004F
:10591400CF00CB00C700C300C000C200C700C60050
:10592400C400C900CD00C900C700CA00CC00C8002B
:10593400C400C800CB00CB00C800C500C200C20030
:10594400C400C700C800CA00CC00C900C600CA0011
:10595400CD00C900C400C600CC00CC00C800C20001
:10596400BF00C200C800CA00C900C700C800C900FF
:10597400C700C900CC00C900C400C500C900CC00E0
:10598400C900C500C500C500C600C700C700C700E0
:10599400CA00C900C600C500CB00CD00C600C300C4
:1059A400C800CB00C900C900C700C300C300C900B8
:1059B400C900C500C900C900C400C500CB00CB00A4
:1059C400C400C500CB00CD00CB00CA00C400C00099
:1059D400C600CB00C800C600C900CA00C600C50086
:1059E400C900C900C600C600C800CC00CB00C8006E
:1059F400C600C400C400C700C800BC00C100D00079
:105A0400C300BE00CE00D100C200C400CB00C7005A
:105A1400C900D300CD00C600C600C700C100C8003D
:105A2400CD00C400BD00C800C900C500C800CE0038
:105A3400C900CA00CF00D200CA00C100BC00C30024
:105A4400CA00C400BF00CD00D200C300BF00CE0016
:105A5400CD00BF00C700D400CE00C600C700C100FF
:105A6400BC00C800CC00C200C600CF00C500C00006
:105A7400D000D300C500C900D600C700B900C700D4
:105A8400CD00BE00BC00CC00CB00C100C400CB00E4
:105A9400C700C600CB00CD00CF00CF00C300BD00BF
:105AA400C900CF00C500C100C700C600C200C600BF
:105AB400CA00C800C900CD00CD00CB00C600C1009B
:105AC400C400CB00C700C300CC00CE00BF00BF00A1
