:020000040800F2
:100000000000022011270008290E00082B0E00080E
:100010002D0E00082F0E0008310E00080000000011
:10002000000000000000000000000000330E000887
:10003000350E000800000000370E0008390E0008D9
:100040006127000861270008612700086127000870
:100050006127000861270008E10600086127000801
:100060006127000861270008612700086127000850
:100070006127000861270008612700086127000840
:10008000410E000861270008612700086127000869
:100090006127000861270008612700086127000820
:1000A0006127000861270008612700086127000810
:1000B0006127000861270008612700086127000800
:1000C00061270008612700086127000861270008F0
:1000D00061270008612700086127000861270008E0
:1000E00061270008612700086127000861270008D0
:1000F00061270008612700086127000861270008C0
:1001000061270008612700086127000861270008AF
:10011000612700086127000861270008612700089F
:10012000612700086127000861270008612700088F
:10013000612700080000000000000000612700089F
:10014000612700086127000861270008612700086F
:10015000612700086127000861270008612700085F
:10016000612700086127000861270008612700084F
:1001700061270008612700086127000800000000CF
:1001800000000000612700080000000000000000DF
:10019000612700080000000000000000612700083F
:1001A00000000000000000000000000061270008BF
:1001B00061270008612700086127000861270008FF
:0401C00061270008AB
:1001C40010B5054C237833B9044B13B10448AFF38D
:1001D40000800123237010BD2800002000000000CF
:1001E400BC27000808B5034B1BB103490348AFF310
:1001F400008008BD000000002C000020BC2700087F
:1002040053B94AB9002908BF00281CBF4FF0FF3179
:100214004FF0FF3000F088B9ADF1080C6DE904CE61
:1002240000F006F8DDF804E0DDE9022304B07047CD
:100234002DE9F047089D8E4604468846002B4AD196
:100244008A42174662D9B2FA82F64EB1C6F1200349
:1002540001FA06F820FA03F3B74043EA0808B44069
:100264004FEA174E1FFA87FCB8FBFEF1230C0EFB76
:10027400118843EA084301FB0CF29A4209D9FB189E
:1002840001F1FF3080F0EA809A4240F2E7800239BF
:100294003B449A1AA3B2B2FBFEF00EFB102243EACF
:1002A400024300FB0CFC9C4509D9FB1800F1FF320A
:1002B40080F0D6809C4540F2D3803B44023840EA2B
:1002C4000140A3EB0C0300211DB1F3400022C5E95A
:1002D4000032BDE8F0878B4205D90DB1C5E90001B4
:1002E40000210846F5E7B3FA83F1002946D17345A6
:1002F40002D3824200F20581841A6EEB03020120CC
:100304009046002DE5D0C5E90048E2E7002A00F058
:100314009080B2FA82F6002E40F0A4808A1A030C70
:100324004FEA174E80B2BCB20121B2FBFEFC0EFBB9
:100334001C2243EA024304FB0CF29A4207D9FB183D
:100344000CF1FF3802D29A4200F2E080C4469B1AB4
:10035400B3FBFEF20EFB123340EA034302FB04F448
:100364009C4207D9FB1802F1FF3002D29C4200F2F2
:10037400CA8002461B1B42EA0C40A5E7C1F12006D5
:100384008B4022FA06F71F430EFA01F420FA06F313
:100394002EFA06FE4FEA1749234300FA01F81FFA22
:1003A40087FCBEFBF9F01C0C09FB10EE44EA0E447A
:1003B40000FB0CFEA64502FA01F209D93C1900F132
:1003C400FF3A80F09C80A64540F2998002383C4474
:1003D400A4EB0E041FFA83FEB4FBF9F309FB1344E8
:1003E4004EEA044403FB0CFCA44508D93C1903F170
:1003F400FF3E80F08280A4457FD9023B3C4443EA1F
:100404000040A4EB0C04A0FB02EC64457346E146F7
:1004140062D35FD05DB1B8EB030264EB090404FA64
:1004240006F622FA01F31E43CC40C5E9006400211C
:100434004FE7B1FBF2FC010C41EA0E4180B240EA05
:1004440001423B4638463C46B846BE462026B1FBF0
:10045400F7F1A2EB080241EA0C4166E7014618E70E
:1004640010462CE7C6F120022EFA02F3B740B14041
:1004740020FA02F24FEA174E0A43B3FBFEF8BCB26D
:100484000EFB1833110C41EA034108FB04F9B04098
:1004940089454FEA104380B23ED9791808F1FF3CF0
:1004A40001D289451FD8A1EB0901B1FBFEF909FB73
:1004B40004F80EFB191192B242EA0142424529D2D4
:1004C400BA1809F1FF31C4D24245C2D2A9F10201DE
:1004D4003A44BEE7F0459DD2BEEB02036CEB070C39
:1004E4000138E14696E7A7EB09094944A8F1020C53
:1004F400B1FBFEF909FB04F8DBE773467FE75046DE
:1005040066E70846FDE63B44023A33E7ACF1020CE9
:100514003B441CE749469CE7A1EB0901C446B1FBF7
:10052400FEF909FB04F8C4E7704700BF2DE9F04F5A
:1005340089B00024039404940594069407940094C9
:100544002F4B1A6B42F080021A631A6B02F080027E
:100554000092009A01941A6B42F001021A631A6B1A
:1005640002F001020192019A02941A6B42F0020213
:100574001A631B6B03F002030293029B4FF4404B7C
:10058400CDF80CB001260496DFF87CA003A95046F0
:1005940001F0C6FC4FF44079CDF80C90DFF86C8084
:1005A40003A9404601F0BCFC4FF410470397154DD6
:1005B40003A9284601F0B4FC22465946504601F0EE
:1005C4009FFD22464946404601F09AFD224639469F
:1005D400284601F095FD03964FF48813049305967D
:1005E40003A9284601F09CFC22460221062002F0C1
:1005F40009F8062002F016F809B0BDE8F08F00BF34
:10060400003802400000024000080240000402409A
:1006140000B583B000210191094B1A6B42F400121A
:100624001A631B6B03F400130193019B0A46102009
:1006340001F0E8FF102001F0F5FF03B05DF804FBC2
:1006440000380240884213D807EE900AB8EE677A61
:1006540007EE901AF8EE677AC7EE276ADFED057A9F
:1006640066EEA77AFCEEE77A17EE903A98B27047F6
:100674000020704700442C4710B5144C4FF07E53B3
:1006840023606360A360124949F64040FFF7DAFF34
:1006940007EE900AF8EE677AC4ED037A0D4949F63D
:1006A4004040FFF7CFFF07EE900AF8EE677AC4EDFB
:1006B400047A094949F64040FFF7C4FF07EE900A5F
:1006C400F8EE677AC4ED057A10BD00BF5C00002027
:1006D40000B10C00801E070000A1070008B502F05D
:1006E40005F83C4B1B88C31AC82B03D8012001F022
:1006F4000FFD08BD374B1880374B1A68D36823F4B5
:100704000073D360354801F028FE35490A78013278
:10071400344B83FB020303EB4303A2EB4303DBB23F
:100724000B70314A52F823104FF08042D162052BEE
:100734000DD8DFE803F0031D27313B452B4A52F85F
:1007440023302B4A12682B49244801F0D1FD0120A3
:1007540000F0A8FA224B1A78274B53F8220000F035
:1007640095FA1D4B1A68D36843F40073D360BDE750
:100774001E4A52F823301E4A12682049174801F0D5
:10078400B7FDE4E7194A52F82330194A12681C49A4
:10079400124801F0ADFDDAE7144A52F82330144A46
:1007A400126818490D4801F0A3FDD0E70F4A52F82A
:1007B40023300F4A12681449084801F099FDC6E72E
:1007C4000A4A52F823300A4A12681049034801F0D1
:1007D4008FFDBCE776000020200100207800002077
:1007E40074000020ABAAAA2A44000020D4270008E1
:1007F40000000020242A000804000020242C000803
:1008040024280008242E0008A4660108249F020856
:1008140072B6FEE700B58FB000230A930B930C93D6
:100824000D930893099301930293039304930593FF
:100834000693079335484FF080420260436083601B
:100844004FF0FF32C2600361836100F0C5FC0028F1
:1008540050D14FF480530A930AA92C4800F022FE89
:10086400002849D1294800F0E3FC002846D10023A0
:100874000893099308A9254800F0A6FF00283FD152
:100884000022019202920392059201A91F4800F0EE
:100894005FFD002836D1002300931D4A116B41F4FB
:1008A40000111163126B02F400120092009A1948AD
:1008B400194A02604FF0C062426040228260C36005
:1008C4004FF4806202614FF4805242614FF48042DF
:1008D40082614FF48072C2614FF40032026243625B
:1008E40001F0A0FC80B9094A0A4B53629A630FB025
:1008F4005DF804FBFFF78CFFFFF78AFFFFF788FF23
:10090400FFF786FFFFF784FFFFF782FF2001002037
:1009140000380240780000208860024000B58FB0A3
:1009240000230A930B930C930D930893099301935B
:100934000293039304930593069307931F48204A55
:100944000260436083604FF6FF72C260036183619B
:1009540000F042FC38BB4FF480530A930AA91748AD
:1009640000F0A0FD08BB154800F08EFCF8B9002388
:100974000893099308A9114800F026FFC8B9602319
:1009840001934CF2503302930023039305930822FE
:1009940001A90A4800F00BFD68B9084800F0BEFA46
:1009A4000FB05DF804FBFFF733FFFFF731FFFFF7EC
:1009B4002FFFFFF72DFFFFF72BFF00BFD80000200C
:1009C4000004004000B595B03422002107A801F0CE
:1009D400C6FE0023029303930493059306930093A6
:1009E400194A116C41F080511164126C02F080526A
:1009F4000092009A019315490A6822F4404242F495
:100A040080420A600A6802F440420192019A02227A
:100A1400079201220A9210220B920D9307A801F06B
:100A24005DF868B90F2302930021039104910591A5
:100A3400069102A800F00EFF20B915B05DF804FB82
:100A4400FFF7E6FEFFF7E4FE0038024000700040C6
:100A540038B501F025FEFFF70FFE002319E0294AFF
:100A640002EB830292ED007A274A02EB8302D2ED75
:100A7400007AF8EE677A67EE877ADFED246A86EE0D
:100A8400A77ABCEEC77A224A17EE101A42F823104E
:100A94000133052BE3DDFFF795FFFFF747FDFFF774
:100AA400B7FDFFF7B7FEFFF739FF0821194800F03B
:100AB40009FE194C0021204600F082FD174D2A78CA
:100AC400134B53F822204FF08043DA620021204672
:100AD40000F076FD2A780C4B53F82230104A126845
:100AE4001049114801F004FC00F064F92A780F4B16
:100AF40053F8220000F0CAF82268D36843F4007364
:100B0400D360FEE75C000020D42700080024744B67
:100B140044000020D80000202001002074000020A0
:100B240000000020242A000878000020040000208F
:100B340082B000EB40000023019304E000BF00BF3B
:100B4400019B01330193019B8342F7D302B07047A9
:100B540010B51420FFF7ECFF094CA36943F40043DC
:100B6400A3611420FFF7E4FFA36943F00043A361EA
:100B74001420FFF7DDFFA36943F40043A36110BD14
:100B84000008024010B504463D4A936943F480438B
:100B9400936110F0800F41D13A4A936943F00043C6
:100BA400936114F0400F40D0364A936943F4805364
:100BB400936114F0200F3ED0334A936943F40073D9
:100BC400936114F0100F3CD02F4A936943F480735F
:100BD4009361FFF7BDFF14F0080F38D0294A9369D9
:100BE40043F40043936114F0040F36D0254A93690B
:100BF40043F48053936114F0020F34D0224A936972
:100C040043F40073936114F0010F32D01E4A9369C8
:100C140043F480739361FFF79BFF10BDA2F500625C
:100C2400936943F400439361BBE7164A936943F025
:100C340080539361BDE7144A936943F00073936151
:100C4400BFE7114A936943F080739361C1E70D4A8A
:100C5400936943F000439361C5E70A4A936943F0FB
:100C640080539361C7E7084A936943F00073936123
:100C7400C9E7054A936943F080739361CBE700BFEA
:100C840000080240000002400004024038B5054656
:100C9400002403E0FFF776FF0134E4B2285D002866
:100CA400F8D138BD10B504463F4A936943F08043F8
:100CB400936110F0800F45D13C4A936943F000439F
:100CC400936114F0400F44D0384A936943F480533D
:100CD400936114F0200F42D0354A936943F40073B2
:100CE400936114F0100F40D0314A936943F4807338
:100CF4009361FFF72DFF14F0080F3CD02B4A936942
:100D040043F40043936114F0040F3AD0274A9369E3
:100D140043F48053936114F0020F38D0244A93694A
:100D240043F40073936114F0010F36D0204A9369A1
:100D340043F480739361FFF70BFF40F6B830FFF77D
:100D4400F7FE10BDA2F50062936943F4004393617A
:100D5400B7E7164A936943F080539361B9E7144A9D
:100D6400936943F000739361BBE7114A936943F0BD
:100D740080739361BDE70D4A936943F00043936127
:100D8400C1E70A4A936943F080539361C3E7084A71
:100D9400936943F000739361C5E7054A936943F08F
:100DA40080739361C7E700BF00080240000002405F
:100DB4000004024008B5194B1A6B42F001021A6391
:100DC4001A6B42F002021A631A6B42F004021A63AD
:100DD400134A136843F08243136002F58062136878
:100DE40043F4A023136002F58062136843F0A04328
:100DF400136047F23050FFF79BFE3320FFF752FF9A
:100E04003220FFF74FFF0C20FFF74CFF2820FFF79D
:100E140049FF0120FFF746FF08BD00BF003802402C
:100E240000000240FEE7FEE7FEE7FEE7FEE770474C
:100E34007047704708B501F04DFC08BD08B502487D
:100E440001F09EFA08BD00BF7800002082B00021A6
:100E540000910B4B5A6C42F480425A645A6C02F46F
:100E640080420092009A01911A6C42F080521A64F6
:100E74001B6C03F080530193019B02B0704700BFC9
:100E84000038024010B582B00368B3F1804F04D03B
:100E94001E4A93422CD002B010BD04460023009396
:100EA4001B4A116C41F001011164126C02F0010241
:100EB4000092009A1748184A02604FF0C0624260DC
:100EC4008360C3604FF4806202614FF480524261D8
:100ED4004FF480428261C3610362436201F0A2F96C
:100EE40018B90C4B63629C63D5E7FFF791FCF8E7F4
:100EF40000230193064B1A6C42F002021A641B6C25
:100F040003F002030193019BC5E700BF0004004006
:100F140000380240780000208860024000B587B0A5
:100F240000230193029303930493059302680E4BE9
:100F34009A4202D007B05DF804FB002300930B4BE8
:100F44001A6B42F002021A631B6B03F00203009354
:100F5400009B0123019302230293059301A90448F2
:100F640000F0DEFFE6E700BF000400400038024066
:100F74000004024030B4036A026A22F001020262F1
:100F84004268846924F0730C0C6844EA0C0423F06E
:100F9400020C8B6843EA0C03114DA84203D005F5FB
:100FA4008065A84205D123F00803CD682B4323F0C4
:100FB40004030B4DA84203D005F58065A84207D170
:100FC40022F440724D6945EA020C8A6942EA0C0235
:100FD400426084614A684263036230BC704700BF68
:100FE4000000014030B4036A026A22F48072026293
:100FF4004268C46924F0730C0C6844EA0C0523F4B9
:1010040000738C6843EA0423114CA04203D004F516
:101014008064A04206D123F40063CC6843EA04232D
:1010240023F480630A4CA04203D004F58064A042F8
:1010340007D122F440524C6942EA04128C6942EA14
:1010440004124260C5614A68C263036230BC7047DF
:101054000000014030B4036A026A22F48052026242
:101064004468C26922F4E6420D6842EA052223F488
:1010740000538D6843EA0533094DA84203D005F5B2
:101084008065A84204D124F480444D6944EA85145F
:101094004460C2614A680264036230BC704700BFA6
:1010A4000000014010B4036A046A24F001040462DD
:1010B400846924F0F00C4CEA021223F00A030B4377
:1010C400826103625DF8044B704710B4036A046ADA
:1010D40024F010040462846924F4704C4CEA023253
:1010E40023F0A00343EA0113826103625DF8044B19
:1010F4007047836823F070030B4343F00703836056
:1011040070477047704700000368324A904212D01B
:10111400B0F1804F0FD0A2F57C4290420BD002F583
:101124008062904207D002F58062904203D002F5BB
:101134007842904203D123F070034A681343254A4E
:1011440090422AD0B0F1804F27D0A2F57C42904241
:1011540023D002F5806290421FD002F58062904253
:101164001BD002F57842904217D002F5705290429B
:1011740013D002F5806290420FD002F58062904253
:101184000BD0A2F59832904207D002F580629042CB
:1011940003D002F58062904203D123F44073CA68FD
:1011A400134323F080034A6913438A68C2620A68BE
:1011B4008262084A904203D002F58062904201D1D3
:1011C4000A690263026842F0040202600122426179
:1011D400036070470000014040B310B5044690F826
:1011E4003D30F3B1022384F83D30214651F8040B1D
:1011F400FFF78AFF012384F8463084F83E3084F8F0
:101204003F3084F8403084F8413084F8423084F828
:10121400433084F8443084F8453084F83D3000206D
:1012240010BD80F83C30FFF72DFEDBE7012070474E
:1012340040B310B5044690F83D30F3B1022384F86E
:101244003D30214651F8040BFFF75EFF012384F87B
:10125400463084F83E3084F83F3084F8403084F8D7
:10126400413084F8423084F8433084F8443084F8C0
:10127400453084F83D30002010BD80F83C30FFF745
:1012840040FFDBE70120704740B310B5044690F8F7
:101294003D30F3B1022384F83D30214651F8040B6C
:1012A400FFF732FF012384F8463084F83E3084F897
:1012B4003F3084F8403084F8413084F8423084F878
:1012C400433084F8443084F8453084F83D300020BD
:1012D40010BD80F83C30FFF715FFDBE701207047B5
:1012E40030B4036A026A22F010020262446882691E
:1012F40022F4E6420D6842EA052223F020038D68B9
:1013040043EA0513114DA84203D005F58065A842B0
:1013140006D123F08003CD6843EA051323F040038C
:101324000A4DA84203D005F58065A84207D124F4EC
:1013340040644D6944EA85048D6944EA8504446047
:1013440082614A688263036230BC704700000140D6
:1013540090F83C30012B28D010B50446012380F8C6
:101364003C300C2A1CD8DFE802F0071B1B1B0C1BAB
:101374001B1B111B1B1B16000068FFF7FBFD002045
:101384000FE00068FFF7ACFF00200AE00068FFF7F9
:1013940029FE002005E00068FFF75CFE002000E065
:1013A4000120002384F83C3010BD0220704738B57A
:1013B40090F83C30012B66D004460D46012380F89A
:1013C4003C300C2A5AD8DFE802F0075959591B5906
:1013D40059593059595944000068FFF7CBFD226828
:1013E400936943F0080393612268936923F004032B
:1013F40093612268936929690B43936100203EE05D
:101404000068FFF76DFF2268936943F400639361FA
:101414002268936923F4806393612268936929693C
:1014240043EA01239361002029E00068FFF7DAFD15
:101434002268D36943F00803D3612268D36923F097
:101444000403D3612268D36929690B43D361002063
:1014540015E00068FFF7FEFD2268D36943F40063DA
:10146400D3612268D36923F48063D3612268D3698A
:10147400296943EA0123D361002000E0012000230D
:1014840084F83C3038BD0220FCE710B4846824F4AE
:101494007F4C42EA03220A4342EA0C0282605DF86E
:1014A400044B704790F83C30012B78D010B50446BB
:1014B400012380F83C30022380F83D3002689368B1
:1014C40023F47F4323F0770393600B68602B4CD0A5
:1014D40023D8402B54D011D8202B03D00AD80BB1D9
:1014E400102B05D119462068FFF703FE002028E0E1
:1014F400012026E0302BF5D0012022E0502B0AD128
:10150400CA6849680068FFF7CDFD50212068FFF7DD
:10151400F0FD002015E0012013E0B3F5805F3AD020
:10152400B3F5005F14D0702B37D1CB684A68896853
:101534000068FFF7AAFF2268936843F0770393607B
:101544000020012384F83D30002384F83C3010BD92
:10155400CB684A6889680068FFF797FF2268936838
:1015640043F4804393600020EBE7CA68496800684D
:10157400FFF7ABFD60212068FFF7BBFD0020E0E72B
:10158400CA6849680068FFF78DFD40212068FFF7AD
:10159400B0FD0020D5E70020D3E70120D1E70220E9
:1015A400704701F01F014FF0010C0CFA01FC036AB3
:1015B40023EA0C030362036A8A40134303627047FD
:1015C40010B504460846002942D194F83E30DBB2F7
:1015D400013B18BF0123002B6ED1002851D10223F7
:1015E40084F83E30012201462068FFF7DAFF2368C1
:1015F400334A934203D002F58062934203D15A6C7A
:1016040042F400425A6423682D4A934249D0B3F10C
:10161400804F46D0A2F57C42934242D002F58062CC
:1016240093423ED002F5806293423AD002F578426A
:10163400934236D002F57052934232D0A2F59432DE
:1016440093422ED01A6842F001021A60002032E060
:10165400042908D008290DD094F84130DBB2013BAD
:1016640018BF0123B7E794F83F30DBB2013B18BF42
:101674000123B0E794F84030DBB2013B18BF0123EB
:10168400A9E7042805D0082807D0022384F84130AC
:10169400A8E7022384F83F30A4E7022384F840300B
:1016A400A0E79A6802F00702062A07D01A6842F0F7
:1016B40001021A60002010BD0120FCE70020FAE7B7
:1016C4000000014010B504460846002942D194F8B0
:1016D4003E30DBB2013B18BF0123002B6ED1002842
:1016E40051D1022384F83E30012201462068FFF7DD
:1016F40058FF2368334A934203D002F58062934231
:1017040003D15A6C42F400425A6423682D4A93422E
:1017140049D0B3F1804F46D0A2F57C42934242D0E7
:1017240002F5806293423ED002F5806293423AD041
:1017340002F57842934236D002F57052934232D089
:10174400A2F5943293422ED01A6842F001021A6034
:10175400002032E0042908D008290DD094F8413043
:10176400DBB2013B18BF0123B7E794F83F30DBB28B
:10177400013B18BF0123B0E794F84030DBB2013BD2
:1017840018BF0123A9E7042805D0082807D002239D
:1017940084F84130A8E7022384F83F30A4E7022309
:1017A40084F84030A0E79A6802F00702062A07D0BE
:1017B4001A6842F001021A60002010BD0120FCE703
:1017C4000020FAE70000014090F83C20012A3DD0B7
:1017D40010B40346012280F83C20022280F83D2008
:1017E40002685068946820F0700C086840EA0C00A5
:1017F40050601A68164882421AD0B2F1804F17D04E
:10180400A0F57C40824213D000F5806082420FD064
:1018140000F5806082420BD000F57840824207D008
:1018240000F57050824203D0A0F59430824204D176
:1018340024F08004496821439160012283F83D200B
:10184400002083F83C005DF8044B70470220704789
:1018540000000140002800F09B8070B50D4604464E
:101864004F4B1B6803F00F038B4208D2CBB24C4A98
:101874001370136803F00F038B4240F08B802368CE
:1018840013F0020F17D013F0040F04D0454A9368E5
:1018940043F4E0539360236813F0080F04D0414AE3
:1018A400936843F4604393603E4A936823F0F003E3
:1018B400A1680B439360236813F0010F32D063686F
:1018C400012B21D09A1E012A25D9364A126812F01A
:1018D400020F61D033498A6822F0030213438B60FC
:1018E40000F004FF06462F4B9B6803F00C0362686C
:1018F400B3EB820F16D000F0F9FE801B41F288335F
:101904009842F0D9032042E0264A126812F4003FBC
:10191400E0D101203BE0234A126812F0007FD9D1C4
:10192400012034E01E4B1B6803F00F03AB4207D9C0
:10193400EAB21B4B1A701B6803F00F03AB422DD1A4
:10194400236813F0040F06D0164A936823F4E05377
:10195400E1680B439360236813F0080F07D0114A22
:10196400936823F46043216943EAC103936000F060
:1019740021F80C4B9B68C3F303130B4AD35CD84088
:101984000A4B18600A4B186800F064FE002070BD12
:10199400012070470120FAE70120F8E70120F6E76B
:1019A400003C024000380240ACD703082400002069
:1019B4002000002008B5464B9B6803F00C03082B5D
:1019C40005D00C2B43D0042B7FD1424819E0404B67
:1019D4005A6802F03F025B6813F4800F12D03C4B4C
:1019E4005968C1F388113B480023A1FB0001FEF7AD
:1019F40007FC374B5B68C3F3014301335B00B0FB67
:101A0400F3F008BD324B5868C0F388104FEA401C0D
:101A1400BCEB000C6EEB0E0E4FEA8E1343EA9C6394
:101A24004FEA8C11B1EB0C0163EB0E03DB0043EACC
:101A34005173C90011EB000C43F100039902002318
:101A44004FEA8C2041EA9C51FEF7DAFBD1E7204BA8
:101A54005A6802F03F025B6813F4800F10D01C4BED
:101A64005968C1F388111B480023A1FB0001FEF74C
:101A7400C7FB174B5B68C3F30273B0FBF3F0C0E71B
:101A8400134B5868C0F388104FEA401CBCEB000CA1
:101A94006EEB0E0E4FEA8E1343EA9C634FEA8C11F1
:101AA400B1EB0C0163EB0E03DB0043EA5173C90095
:101AB40011EB000C43F10003990200234FEA8C2040
:101AC40041EA9C51FEF79CFBD3E7034899E700BF2A
:101AD4000038024040787D010024F400002800F022
:101AE400018270B582B00446036813F0010F41D03F
:101AF400994B9B6803F00C03042B32D0964B9B68E4
:101B040003F00C03082B27D0934B9B6803F00C03C2
:101B14000C2B59D06368B3F5803F5BD0B3F5A02F8D
:101B24005ED08D4B1A6822F480321A601A6822F44F
:101B340080221A606368002B5CD000F0D7FD054654
:101B4400854B1B6813F4003F14D100F0CFFD401BFC
:101B54006428F5D90320CCE17F4B5B6813F4800F34
:101B6400D2D07D4B1B6813F4003F03D06368002B75
:101B740000F0BA81236813F0020F60D0764B9B68A3
:101B840013F00C0F4AD0744B9B6803F00C03082B22
:101B94003FD0714B9B6803F00C030C2B69D0E368B6
:101BA400002B75D06D4B01221A6000F09FFD054695
:101BB400694B1B6813F0020F61D100F097FD401BC5
:101BC4000228F5D9032094E1634B5B6813F4800F7A
:101BD400A0D0C6E7604A136843F480331360A9E7D2
:101BE4005D4B1A6842F480221A601A6842F480320B
:101BF4001A609FE700F07AFD0546574B1B6813F403
:101C0400003FB7D000F072FD401B6428F5D90320D3
:101C14006FE1514B5B6813F4800FBAD14E4B1B68D4
:101C240013F0020F03D0E368012B40F05F814A4AAE
:101C3400136823F0F803216943EAC103136023689E
:101C440013F0080F49D06369002B33D0434B0122B2
:101C5400C3F8802E00F04AFD05463F4B5B6F13F03E
:101C6400020F3AD100F042FD401B0228F5D90320AF
:101C74003FE1394B5B6813F4800F90D1CEE7364ACD
:101C8400136823F0F803216943EAC1031360D6E71C
:101C9400324B00221A6000F029FD05462E4B1B68CA
:101CA40013F0020FCBD000F021FD401B0228F5D920
:101CB40003201EE1294B0022C3F8802E00F016FDFC
:101CC4000546254B5B6F13F0020F06D000F00EFDA6
:101CD400401B0228F5D903200BE1236813F0040FFD
:101CE40076D01D4B1B6C13F0805F33D1002301931E
:101CF400194B1A6C42F080521A641B6C03F0805327
:101D04000193019B0125164B1B6813F4807F29D096
:101D1400A368012B3AD0052B3ED00F4B1A6F22F04B
:101D240001021A671A6F22F004021A67A368002BD3
:101D34003CD000F0DBFC0646074B1B6F13F0020F90
:101D440045D100F0D3FC801B41F288339842F3D98B
:101D54000320CEE00025D6E70038024000004742C9
:101D6400007000406B4A136843F48073136000F002
:101D7400BDFC0646674B1B6813F4807FC8D100F096
:101D8400B5FC801B0228F5D90320B2E0624A136F28
:101D940043F001031367C9E75F4B1A6F42F0040273
:101DA4001A671A6F42F001021A67BFE700F09EFC3F
:101DB4000646594B1B6F13F0020F08D000F096FC37
:101DC400801B41F288339842F3D9032091E0EDB9A6
:101DD400A369002B00F08C804F4A926802F00C0239
:101DE400082A54D0022B17D04C4B00221A6600F05C
:101DF4007DFC0446484B1B6813F0007F45D000F07F
:101E040075FC001B0228F5D9032072E0424A136CCA
:101E140023F080531364DBE7404B00221A6600F082
:101E240065FC05463C4B1B6813F0007F06D000F0B0
:101E34005DFC401B0228F5D903205AE0E369226ABD
:101E44001343626A43EA8213A26A5208013A43EADC
:101E54000243E26A43EA0263226B43EA02732E4AB4
:101E640053602E4B01221A6600F040FC04462A4BB4
:101E74001B6813F0007F06D100F038FC001B022819
:101E8400F5D9032035E0002033E0002031E0012BB8
:101E940031D0214B5B6803F48001E26991422CD17B
:101EA40003F03F02216A8A4229D1616A47F6C0726F
:101EB4001A40B2EB811F24D103F44031A26A5208C4
:101EC400013AB1EB024F1ED103F07062E16AB2EB4A
:101ED400016F1AD103F0E043226BB3EB027F16D1FA
:101EE400002006E001207047012002E0012000E00C
:101EF400002002B070BD0120FBE70120F9E70120BA
:101F0400F7E70120F5E70120F3E70120F1E70120DD
:101F1400EFE700BF00700040003802400000474275
:101F240000230F2B00F2E38070B582B065E0856872
:101F34004FEA430E032404FA0EF425EA0405CC68A0
:101F440004FA0EF42C438460446824EA02044A68C8
:101F5400C2F300129A40224342605CE0DC08083479
:101F640050F8242003F00705AD004FF00F0E0EFAD1
:101F740005FE22EA0E0E0A69AA4042EA0E0240F861
:101F840024205CE0062200E0002202FA0EF22A433A
:101F94000234574D45F82420564A94686FEA0C02DF
:101FA40024EA0C054E6816F4801F01D04CEA04059F
:101FB400504CA560E46802EA04054E6816F4001F5C
:101FC40001D04CEA04054B4CE560646802EA040560
:101FD4004E6816F4003F01D04CEA0405454C656098
:101FE400246822404D6815F4803F01D04CEA040275
:101FF400404C226001330F2B77D801229A400C68A1
:1020040004EA020C32EA0404F4D14C6804F0030438
:10201400013C012C8BD94A6802F00302032A09D03F
:10202400C4685D000322AA4024EA02048A68AA4024
:102034002243C2604A6802F00302022A8ED0046876
:102044004FEA430E032202FA0EF224EA02044A681B
:1020540002F0030202FA0EF2224302604A6812F40A
:10206400403FC7D000220192234A546C44F4804478
:102074005464526C02F480420192019A9C08A51C9B
:102084001B4A52F8255003F0030E4FEA8E0E0F221E
:1020940002FA0EF225EA0205184A90423FF474AFA0
:1020A40002F58062904216D002F58062904214D00C
:1020B40002F58062904212D002F58062904210D004
:1020C40002F5806290420ED002F5806290423FF4A5
:1020D40059AF072259E7012257E7022255E70322A5
:1020E40053E7042251E705224FE702B070BD704761
:1020F40000380140003C014000380240000002402A
:102104000AB181617047090481617047704700001A
:1021140008B5054B5B69034200D108BD024B586109
:10212400FFF7F4FFF9E700BF003C014030B4056855
:102134002C6824F480242C60046863608368402B3A
:1021440005D0036899600368DA6030BC704703689F
:102154009A600368D960F8E710B40368D9B21039FB
:102164000A4AA2FB01421209094CA25CC2655F291A
:1021740007D96FF3090304338365806D5DF8044B5D
:1021840070476FF309038365F7E700BFABAAAAAAF8
:10219400A4D70308836A826992B9012B0AD0022B5F
:1021A40002D00BB100207047C36A13F0807F28D19E
:1021B40000207047C36AB3F1C07F24D00020704769
:1021C400B2F5005F09D0022B25D9032B25D1C36AB0
:1021D40013F0807F23D100207047032B03D8DFE85E
:1021E40003F01404140A00207047C36A13F0807FBC
:1021F4000DD100207047C36AB3F1C07F09D000201D
:10220400704701207047012070470120704701206A
:10221400704701207047012070470020704701205B
:102224007047000070B5044600F060FA002C5BD0E3
:102234000546022384F83530002384F834302268BC
:10224400136823F00103136023681A6812F0010F66
:102254000AD000F04BFA431B052BF5D92023636504
:10226400032084F8350070BD1A6820491140626863
:10227400A0680243E06802432069024360690243A4
:10228400A0690243E0690243206A02430A43616A87
:1022940004291ED01A602668756925F00705636A4B
:1022A4001D43042B07D1A36A1D43E36A1BB12046D7
:1022B400FFF770FF90B975612046FFF74DFFE26D9F
:1022C4003F239340836000206065012384F8353008
:1022D400C9E7E16A206B01430A43DBE740236365F6
:1022E400012084F83500BEE70120BCE73F8010F0F0
:1022F40038B50446856D90F8340001282BD00120B0
:1023040084F8340094F83500C0B2012804D00023C6
:1023140084F83430022038BD022084F835000020CF
:1023240060652046FFF702FFE26D3F239340AB60F8
:102334002268136843F016031360236C23B12268E8
:10234400136843F0080313602268136843F0010321
:1023540013600020DFE70220DDE790F83530DBB2C0
:10236400022B03D08023436501207047052380F8A6
:1023740035300268136823F00103136000207047AE
:10238400F0B583B0044600230193724B1D68724B71
:10239400A3FB0535AD0A876D3E68C26D08239340E3
:1023A400334210D003681A6812F0040F0BD01A6875
:1023B40022F004021A60C26D08239340BB60436D8F
:1023C40043F001034365E26D01239340334209D096
:1023D4002268526912F0800F04D0BB60636D43F031
:1023E40002036365E26D04239340334209D02268FB
:1023F400126812F0020F04D0BB60636D43F0040353
:102404006365E26D10239340334224D0226812683E
:1024140012F0080F1FD0BB6023681A6812F4802FD3
:102424000DD01B6813F4002F04D1236C9BB12046FC
:10243400984710E0A36C73B1204698470BE01A68E4
:1024440012F4807F03D11A6822F008021A60236C08
:102454000BB120469847E26D20239340334255D078
:102464002268126812F0100F50D0BB6094F8353017
:10247400DBB2052B0ED023681A6812F4802F33D0F8
:102484001B6813F4002F2AD1636C002B3ED0204626
:1024940098473BE02268136823F016031360226810
:1024A400536923F080035361236CA3B1226813683A
:1024B40023F008031360E26D3F239340BB600123C4
:1024C40084F83530002384F83430236D002B3FD05A
:1024D400204698473CE0A36C002BE7D1EBE7E36B85
:1024E400A3B12046984711E01A6812F4807F09D1FD
:1024F4001A6822F010021A60012384F83530002390
:1025040084F83430E36B0BB120469847636DFBB11C
:10251400636D13F0010F17D0052384F8353022685A
:10252400136823F001031360019B01330193AB4251
:1025340004D823681B6813F0010FF5D1012384F834
:102544003530002384F83430E36C0BB120469847CF
:1025540003B0F0BD24000020B5814E1B002807DB2A
:1025640000F01F02400901239340024A42F8203040
:10257400704700BF00E100E0002808DB0901C9B290
:1025840000F1604000F5614080F80013704700F0EE
:102594000F000901C9B2014B1954704714ED00E052
:1025A40000B500F00700C0F1070CBCF1040F28BF10
:1025B4004FF0040C031D062B0FD9C31E4FF0FF3E32
:1025C4000EFA0CF021EA000199400EFA03FE22EA09
:1025D4000E0241EA02005DF804FB0023EEE700006E
:1025E400074AD36823F4E0631B041B0C000200F4C5
:1025F400E060034343F0BF6343F40033D3607047A8
:1026040000ED00E010B50446054BD868C0F3022085
:10261400FFF7C6FF01462046FFF7AEFF10BD00BF1F
:1026240000ED00E008B5FFF799FF08BD0138B0F1EF
:10263400807F0BD24FF0E0235861054AF02182F8E5
:1026440023100020986107221A6170470120704707
:1026540000ED00E010B504460E4B1A784FF47A737F
:10266400B3FBF2F30C4A1068B0FBF3F0FFF7DEFFA4
:1026740068B90F2C01D901200AE0002221464FF04D
:10268400FF30FFF7BFFF054B1C60002000E0012076
:1026940010BD00BF1C0000202400002020000020EA
:1026A40008B50B4B1A6842F400721A601A6842F4B7
:1026B40080621A601A6842F480721A600320FFF77D
:1026C4008FFF0F20FFF7C6FFFEF7C0FB002008BDF9
:1026D400003C0240034A1168034B1B780B4413600F
:1026E400704700BF680100201C000020014B1868DF
:1026F400704700BF68010020034AD2F8883043F4D1
:102704007003C2F88830704700ED00E0DFF834D081
:10271400FFF7F2FF0C480D490D4A002302E0D4589C
:10272400C4500433C4188C42F9D30A4A0A4C002317
:1027340001E013600432A242FBD300F019F8FEF763
:1027440087F97047000002200000002028000020C4
:10275400CCD70308280000206C010020FEE70244C7
:102764000346934200D1704703F8011BF9E70000C8
:1027740070B50D4D0D4C641BA4100026A64209D162
:102784000B4D0C4C00F018F8641BA4100026A64254
:1027940005D170BD55F8043B98470136EEE755F86E
:1027A400043B98470136F2E7C4D70308C4D70308AB
:1027B400C4D70308C8D70308F8B500BFF8BC08BCE1
:1027C4009E467047F8B500BFF8BC08BC9E467047EB
:1027D400000100000001000000010000409C000016
:1027E400409C0000409C000053696E65000000009E
:1027F400536177746F6F74680000000054726961EC
:102804006E67756C617200005069616E6F00000044
:1028140047756974617200004472756D00000000B0
:1028240000002000400060008000A000C000E00024
:1028340000012001400160018001A001C001E0010C
:1028440000022002400260028002A002C002E002F4
:1028540000032003400360038003A003C003E003DC
:1028640000042004400460048004A004C004E004C4
:1028740000052005400560058005A005C005E005AC
:1028840000062006400660068006A006C006E00694
:1028940000072007400760078007A007C007E0077C
:1028A40000081F083F085F087F089F08BF08DF086B
:1028B400FF081F093F095F097F099F09BF09DF0955
:1028C400FF091F0A3F0A5F0A7F0A9F0ABF0ADF0A3D
:1028D400FF0A1F0B3F0B5F0B7F0B9F0BBF0BDF0B25
:1028E400FF0B1F0C3F0C5F0C7F0C9F0CBF0CDF0C0D
:1028F400FF0C1F0D3F0D5F0D7F0D9F0DBF0DDF0DF5
:10290400FF0D1F0E3F0E5F0E7F0E9F0EBF0EDF0EDC
:10291400FF0E1F0F3F0F5F0F7F0F9F0FBF0FDF0FC4
:10292400FF0FDF0FBF0F9F0F7F0F5F0F3F0F1F0FB3
:10293400FF0EDF0EBF0E9F0E7F0E5F0E3F0E1F0EAB
:10294400FF0DDF0DBF0D9F0D7F0D5F0D3F0D1F0DA3
:10295400FF0CDF0CBF0C9F0C7F0C5F0C3F0C1F0C9B
:10296400FF0BDF0BBF0B9F0B7F0B5F0B3F0B1F0B93
:10297400FF0ADF0ABF0A9F0A7F0A5F0A3F0A1F0A8B
:10298400FF09DF09BF099F097F095F093F091F0983
:10299400FF08DF08BF089F087F085F083F081F087B
:1029A4000008E007C007A00780076007400720076A
:1029B4000007E006C006A006800660064006200662
:1029C4000006E005C005A00580056005400520055A
:1029D4000005E004C004A004800460044004200452
:1029E4000004E003C003A00380036003400320034A
:1029F4000003E002C002A002800260024002200242
:102A04000002E001C001A001800160014001200139
:102A14000001E000C000A000800060004000200031
:102A24000008320864089608C808FA082C095E09E8
:102A34008F09C009F109220A520A820AB10AE00A7E
:102A44000F0B3D0B6B0B980BC50BF10B1C0C470CC0
:102A5400710C9A0CC30CEB0C120D390D5F0D830D28
:102A6400A70DCA0DED0D0E0E2E0E4E0E6C0E8A0E17
:102A7400A60EC10EDC0EF50E0D0F240F3A0F4F0FEC
:102A8400630F760F870F980FA70FB50FC20FCD0FE7
:102A9400D80FE10FE90FF00FF50FF90FFD0FFE0F3F
:102AA400FF0FFE0FFD0FF90FF50FF00FE90FE10F08
:102AB400D80FCD0FC20FB50FA70F980F870F760F42
:102AC400630F4F0F3A0F240F0D0FF50EDC0EC10EDE
:102AD400A60E8A0E6C0E4E0E2E0E0E0EED0DCA0DA7
:102AE400A70D830D5F0D390D120DEB0CC30C9A0C61
:102AF400710C470C1C0CF10BC50B980B6B0B3D0BAD
:102B04000F0BE00AB10A820A520A220AF109C0092B
:102B14008F095E092C09FA08C80896086408320867
:102B24000008CD079B07690737070507D306A106E9
:102B340070063F060E06DD05AD057D054E051F0535
:102B4400F004C204940467043A040E04E303B803D3
:102B54008E0365033C031403ED02C602A0027C024B
:102B6400580235021202F101D101B101930175013C
:102B740059013E0123010A01F200DB00C500B00047
:102B84009C0089007800670058004A003D0032002C
:102B940027001E0016000F000A00060002000100B4
:102BA40000000100020006000A000F0016001E00CB
:102BB400270032003D004A00580067007800890071
:102BC4009C00B000C500DB00F2000A0123013E01B5
:102BD400590175019301B101D101F10112023502CC
:102BE40058027C02A002C602ED0214033C036503F2
:102BF4008E03B803E3030E043A0467049404C20486
:102C0400F0041F054E057D05AD05DD050E063F06E6
:102C14007006A106D3060507370769079B07CD078A
:102C240000001000200030004000500060007000E0
:102C340080009100A100B100C100D100E100F100C9
:102C440001011101210131014101510161017101B0
:102C540081019101A201B201C201D201E201F2019A
:102C64000202120222023202420252026202720280
:102C740082029202A202B302C302D302E302F3026B
:102C84000303130323033303430353036303730350
:102C940083039303A303B303C403D403E403F4033C
:102CA4000404140424043404440454046404740420
:102CB40084049404A404B404C404D504E504F5040D
:102CC40005051505250535054505550565057505F0
:102CD40085059505A505B505C505D505E605F605DE
:102CE40006061606260636064606560666067606C0
:102CF40086069606A606B606C606D606E606F706AF
:102D0400070717072707370747075707670777078F
:102D140087079707A707B707C707D707E707F7077F
:102D2400080818082808380848085808680878085F
:102D340088089808A808B808C808D808E808F8084F
:102D44000809190929093909490959096909790930
:102D540089099909A909B909C909D909E909F9091F
:102D6400090A190A2A0A3A0A4A0A5A0A6A0A7A0A01
:102D74008A0A9A0AAA0ABA0ACA0ADA0AEA0AFA0AEF
:102D84000A0B1A0B2A0B3B0B4B0B5B0B6B0B7B0BD2
:102D94008B0B9B0BAB0BBB0BCB0BDB0BEB0BFB0BBF
:102DA4000B0C1B0C2B0C3B0C4C0C5C0C6C0C7C0CA3
:102DB4008C0C9C0CAC0CBC0CCC0CDC0CEC0CFC0C8F
:102DC4000C0D1C0D2C0D3C0D4C0D5D0D6D0D7D0D74
:102DD4008D0D9D0DAD0DBD0DCD0DDD0DED0DFD0D5F
:102DE4000D0E1D0E2D0E3D0E4D0E5D0E6E0E7E0E45
:102DF4008E0E9E0EAE0EBE0ECE0EDE0EEE0EFE0E2F
:102E04000E0F1E0F2E0F3E0F4E0F5E0F6E0F7F0F15
:102E14008F0F9F0FAF0FBF0FCF0FDF0FEF0FFF0FFE
:102E2400000800080008000800080008000800085E
:102E3400000800080008FF07FF07FF070008000854
:102E44000008FF0700080008FF070008FE07000845
:102E5400FE0700080108FF07FF07FF07FF07FE073B
:102E6400FE070108FF07020801080108000800081E
:102E7400FE0702080108FE070208FE07FE07FF0717
:102E840001080108FD0700080208FE07A6059201D3
:102E9400FA070F0AE106E2061C0AC70A42063A06C6
:102EA4004D0A290ACE06F107580C0E0BE605CA078F
:102EB400490EE30CA6040D01FB058609FE050E056B
:102EC400A3081D0A5907FF05BC09BC0A0907D70650
:102ED4004B0A820B78071C07280D6A0E8B077701B3
:102EE400B603EC075A06E104C307320A9B074205FE
:102EF4002708620AB70717065409BD0B3A08AF053D
:102F0400240A290E3A0ACD03F903C207A2079E0533
:102F140049070B0A7708C605BE07B60ACE08D705C7
:102F24001C08A20B8809D6057308B10D280CAD0541
:102F34005D0347065107AC0595066309C408D0052F
:102F4400A706DF092F09EF05F7060B0B770A210601
:102F54006D06B10BE50CC9073A040A06B2074B0625
:102F64005306ED085A09A70676069809050ABC0611
:102F74002C06FD09230B4F07DD05320A250D9A099E
:102F84003005780528074D06D70530087E092C073B
:102F9400D9057408020A6407B205C4083A0B650827
:102FA4008C054308300CB20A7F06B6053907C906FA
:102FB400DB05B407A3090A080606DB074B0A9C08CD
:102FC400E3058E07D10A970937063607510B970B8D
:102FD400D607E705DD06D206A905EA065409A208C4
:102FE4001906D206B70947093B069406190A6B0A63
:102FF400FC064306D309920BE5087D06F3062F076A
:10300400D7055F0603094309BB0644061B09FE09ED
:103014002E071D060609BC0A21082506A108620B15
:10302400080A4807F0063507E805A10524088E09B3
:103034008107E9050308EF0907080306F4078D0A69
:103044001D09660688077F0A6D0A0D084607900762
:103054006B068105700791094E0812063D07BB09EE
:10306400E3085E061A07EE09D2091B07F806AE0943
:10307400900AC308AF07EE07DC06500580062B094B
:10308400F308810687060A094809D1066E061E0957
:10309400290AEB07BA069408190A1A09FA07230839
:1030A4006907AF05010698084E09320760067E08D5
:1030B400A00997073A0644082F0ACE08E306DC075E
:1030C400B4097B0968085B08E50711069305CD0779
:1030D4005E09D60735069D0771094A0869067E0709
:1030E400C8096409540758070A0966098708740857
:1030F4005E08BC067F051E07550995088E060E0757
:10310400F608C9081F073507D30849093308A20779
:103114004708DF08F608FF087208DF06D305D9065A
:1031240096088B083E0721075708A008950739071A
:10313400410804098408E6070D086C08AE08110963
:10314400F2088607F7054A061608B708AA07130700
:103154000108BA0803084907E907C708A9081408B9
:103164000B0844086A08F00860096B087406DE0559
:103174006207A80812082607A3078B0841087107ED
:103184009F077008A5084A08260825081C08940803
:10319400630911093007E805C7065808620866077D
:1031A4006C0754087208B6077207100880086A088A
:1031B40047082F08FC073F083109810908083F0622
:1031C4005306D8077A08B8074F07F8077008F907B5
:1031D4007B07C0073D08640866085408FC07E40739
:1031E400B4088109C908F00640065A0764080C08A7
:1031F4006E07C8075C082608A307AD0716083B0836
:103204004A0864083008DC073F0842093D09A4075E
:103214005B06D40609083408A107A4072D08400852
:10322400CE07A707FB072E083F0863085708E707E0
:10323400E507D60867095B08BF069C06B10738088E
:10324400CA079F0717084908F407C707FB071308AD
:103254001408610886081308BB076C085709DB08C3
:1032640046078A0641070808E807A107EB07310863
:103274000008C007E0070008F70739088A083E0875
:10328400A90700080B093009E607C1060007CA07A9
:10329400F607B807DA0733082308EA07F7070D0823
:1032A400F40712087A087408D807BE07A0083D0975
:1032B4007A082407D5068007EA07C607BC0704086E
:1032C4001C08F907FE071308FE07FC0750088D08C1
:1032D4001F08B8072B08FE08D808B60702074C07D2
:1032E400C707D007BD07F00719080508FD07100830
:1032F4000508E407230881085A08D807EC07A8083A
:10330400E80821084A073A079C07C407BE07EC07E8
:1033140019080208EF0706081108E807F20754081D
:103324006608F807C0074C08E4088608A0073807B1
:103334008007C407C307E60720081B08ED07FC073E
:1033440026080508DB071F086C082A08BF070A08B7
:10335400BB08B808F8075C076507A607B807E207C3
:1033640025081F08E807E7071B081308DA07FC0706
:103374005C084E08D707DB077C08C60836088A07AE
:103384006A078F07A007D60737084208FB07E90733
:1033940025081D08CE07DA074C086F080208CB077A
:1033A4003D08AE086408C6077D0781077D07A507A9
:1033B40013084A081308E6070F082208DC07C507A4
:1033C4002D086F081D08CE0719088A087508FE071E
:1033D400B2078E076D077F07E90742082E08F80732
:1033E40008082808F407C7070A0861084408EC0716
:1033F400FE076A0884082608D507B2078307710701
:10340400C10728083308FC07FC071E08FD07C70787
:10341400EA07430850080808F5073C086708390814
:10342400F807CA0792076E07A307050828080008CB
:10343400F4071E081A08DF07DF072B0857082D08B2
:103444000E083108510843081608EA07AC07730749
:103454008E07EC0727080D08EA0702080F08F00793
:10346400E007030839083D081E082008320841080F
:103474002F08FB07BD0784078D07D2070C08170820
:10348400FD0705081608FB07DE07F10729083D08B4
:103494002208130820083A083D081808DF07A10786
:1034A4009307BE07FD07130809080E08130803084D
:1034B400EA07EF07150834082B080D080108170858
:1034C4002F081E08EA07B5079807AB07DD070B08A6
:1034D4001508100813080F08FC07E8070608340845
:1034E4003B081908FF07120831082B080208CC070B
:1034F400AB07A907CC07FE070E0807080F08180832
:103504000B08ED07FA0727083C081D08FE07030807
:103514001C082A081708EC07BB07A807C207EC0712
:103524000008FE07060815081308F507F207160831
:10353400340828080008FC0713081F081508FB07AF
:10354400D907B907BA07E6070608FA07EF070A0812
:103554001908FA07E5070608380838081008FF07AD
:103564000F081C0819081108F507C707BA07DE0772
:103574000208FF07F00706081208FA07DA07F0073F
:10358400260833081B0809080A0808080F08230836
:103594001108D607BD07DB070008FA07EA07030886
:1035A4001808FA07D307E507170829081E0815089D
:1035B4000D080008040824082108EA07BA07D107FF
:1035C400FD07F907E807FA0715080808DD07D60715
:1035D400FC071D0821081B0812080E080908160814
:1035E40024080608DB07D607F507FC07E607F007FB
:1035F40010081208F107DE07F7070D080C08160873
:103604001F080908F807090827081608E807E0074B
:10361400F307F707E307EC070E081408FA07EB07AC
:10362400F407FB07FC070C0826081A08F607F50739
:1036340017081908F307E507F807F607DE07E40794
:1036440007081108F607F70710081308020804080A
:103654001E082008FF07F4070F0820080608E507DE
:10366400EA07F607E907DB07F1070708F807F30796
:103674000A0815080208F607120823080208EA07D0
:10368400FF071F081808F807EC07F307F307E70715
:10369400E107EC07F507F80701080E080B08FF0718
:1036A40007081A081408F007ED0715082508080884
:1036B400EB07FB070908F207E307F3070408F90718
:1036C400F6070C081208FB07F40711082108010883
:1036D400E607FF0723081A08F207EC0701080208A7
:1036E400EB07E607FC070408F90702080E08FA07C7
:1036F400E207FC071F081108E807F00721082A0859
:103704000608F007FB070408F107E507F307FD07C0
:10371400FC0704081208FF07DB07E807130814086E
:10372400EB07E50718082E080E08F80703080A082F
:10373400F307E707F9070708FA07FD0718080F0852
:10374400E407D50700081908F807E1070108270866
:103754001A08FD07000809080008F107FF070E080A
:10376400FA07F50716082008F107CD07F3071C0828
:103774000708E307F507230822080208FE070D08D7
:103784000408EC07F20706080208F40706082008F4
:103794000408D607E1070E080B08E407EC07150830
:1037A4001A08FC07F7070F080B08ED07EA070408D7
:1037B4000508F50702081C080B08E207E5070F08CF
:1037C4001308F307F10712081808FC07F7070F0896
:1037D4000E08ED07E607FE070008F207FC071308CA
:1037E4000E08EC07E807060817080308F9070C0891
:1037F40016080308F70704080908FC07EF07F7078A
:10380400FD07F407FA070C080B08F107E807FE07A1
:103814000D080308FF0711081608FF07F407FF0740
:103824000B080508FE07FF070008000802080B083C
:103834000808F807F207F407F807FD0701080B0862
:103844000F080908F807F207F907FD079107C307EE
:103854001508F107C9070D083B080608DB07EB0745
:103864002208FF07F0073E0844080808E5073F0858
:103874008008F6078D07A7070C080E08CC07FD077C
:103884002C081008E807FE0735080408DE071808A6
:1038940040081908DF07260873082808A5078907C0
:1038A400DD07F707D707EF0722081808DC07E50745
:1038B4001F081508E307F6073A082A08DB07EC0790
:1038C40051085708DD079607D0070608ED07EB07F0
:1038D40021082B08F007E70725082D08E507DC0772
:1038E40027083C08EE07D9073308620808089F0731
:1038F400AD07E507E707E60713082508EE07D6072F
:1039040012083008F307D3071A084A080608CA073A
:10391400080857082D08C807B507E907F307E4079F
:10392400040826080508D607FD0732080D08D20743
:10393400FC0747082908D607ED074B084508E107A7
:10394400B207D507E407D407F40726080A08CE0708
:10395400E30727081708D107E80740083C08E407ED
:10396400D8072F0850080508C707DC07EF07DA0750
:10397400EB0721081D08DC07D90724082E08E707F0
:10398400DA072F084B08F807D1071B0855081E084B
:10399400DA07DC07E907CE07D2070F082208E50794
:1039A400CB070D082A08EF07CE07130849080608B5
:1039B400C407F70741082D08EC07E607F807DB07FB
:1039C400CA0700082B080108CE07F90732081008B7
:1039D400DC07FD073D082308DA07E2072708330858
:1039E4000108ED07F507DF07C607EC071E08050801
:1039F400D307EA0728081D08E407F2073108350849
:103A0400F207D907070827081008FB07FD07E9078D
:103A1400CD07E6071A081008DD07DE071C082B0887
:103A2400F407DE0717083C080F08DD07F5071F0831
:103A34001A080008FC07F007D407DD070A08150870
:103A4400EB07D8070A082D080808E10701082F0822
:103A54001A08E407E3070F081F080908F807F00726
:103A6400DD07D607F9071808FC07D807F307280865
:103A74001E08EB07F00725082808F507E3070D08DB
:103A8400240811080008FF07E607CD07E807140813
:103A94000808D707E0071A082308F007DE070F080D
:103AA4002D080508E407FD07230822080F08040869
:103AB400F107D507DC0707081308E907E0070C0836
:103AC4002108FF07DD07F5071A081208F407F107B4
:103AD40012082B0826081208F607E007E007F60785
:103AE4000408F607EC07FF0716080C08EF07EB07B6
:103AF40002080D08FE07EF07FC071B082908200829
:103B04000408E607DC07F1070108F907EA07F707E5
:103B140013080D08F207EA07FD070D080408F80763
:103B2400FA070D081F0822081308F107DC07EB0742
:103B34000008FA07E707EF070E081208F907ED0770
:103B4400FD070C080508FA07FD07070811081F08F8
:103B54001E08FF07DF07E307FD07FC07ED07F10772
:103B6400070812080108F307FB0707080C080808F0
:103B74000508020808081A0821080708E407DD07F1
:103B8400F207FD07EF07EC07FE0709080108F7072E
:103B9400FB07040805080E0810080308FD071108B0
:103BA40026080E08E907E207F107F707EE07F20710
:103BB40006080908FF07F807FB07FE07FE070508C4
:103BC40010080908FD0706081B081608F707E5078B
:103BD400EC07F407EF07F10705080E08FF07F507E0
:103BE400FE070408FB07FB07120818080108FB0777
:103BF40014081E080508EB07ED07F407EF07EF07A5
:103C040001080D080208FA0700080608FB07F40774
:103C1400060813080A0800080B081C081208F9070C
:103C2400EC07EF07F307F107F70703080508FF0799
:103C3400FF070308FB07F207F70708080C08FF074C
:103C4400FF0712081A080408F007F307FA07F80731
:103C5400FC0708080708FA07FB070A080508EF0726
:103C6400F00706080B08FA07F50707081508070800
:103C7400F207EF07F507F507FD0708080B08FE072D
:103C8400F90705080B08FD07F207FF070F080708E7
:103C9400F707010816081308FA07F007F607F907EB
:103CA400F80706080F080808F907FB0709080508BC
:103CB400F207F3070B080F08FA07F7070F081608AF
:103CC400FE07EE07F707FC07F107F4070B080F08D8
:103CD400F807EA07FE070C08FB07EE0701081708B8
:103CE4000A08F607030813080508ED07F007FF079D
:103CF400F707F107080817080308EB07F807110886
:103D04000308EB07FA071B081508F907FE0716084E
:103D14000C08F007EF07FE07F807E807F90715088E
:103D24000C08EF07F1070C0807089B07A402E40539
:103D3400CC072207A408830AE10748074F07B905FF
:103D4400A1074B0BA90ADD059306B8099A0A390A9B
:103D5400490B680A3C06CA065205D9034507ED0A11
:103D6400D509C105EA060009EB069906FB0898097E
:103D7400AE093109860620078C0B8C0D5009770695
:103D84006B0821072004E004D006E007FB08D708ED
:103D9400EA053C05A60893094107DA077A092408CD
:103DA4004707B808B709430A080BDD080505C2052B
:103DB4004508A7067705EB08FA0A53082706A5065F
:103DC4008607F408DC09F607D9065309160AA20780
:103DD4002208420BA50A85074006AF0551055F0777
:103DE400E00852072C071D09F2074405BE06C10965
:103DF4007309FB07940720070208230AC8092A0845
:103E04005C09FC091106B803A206310990082B08C5
:103E14004E08750787071A0831078307FF09B10998
:103E2400840697067B092E0A7B098B097208BA0659
:103E3400D60690063D05F906500A70093506570660
:103E44001108E207C9075308F0072108D1088507BC
:103E5400C906D309C20BDC0864063F074C072006D9
:103E6400000785089008D7087A085F064006060907
:103E74008F0958075307C1084008E5071309760955
:103E84007709FA091F08D804770572084D08DD067A
:103E940016083109D207DD061507480788087F0987
:103EA400A60745066808F20987086208F409260986
:103EB400D3063E067006CA06AD089009C407130768
:103EC4008A081A08500646073109C908ED07C107D0
:103ED400770780089A0AE5096F07BE07B108A106AB
:103EE4002C0552073909B40814086E07B306A6074F
:103EF400C508B0071907E1080D09FD063807700960
:103F0400CC091009AE0868073D062A07C807F10660
:103F1400DF07D609CE086506D60636083D084D08E3
:103F240053089007DD0723096C088F078109BE0A2F
:103F34001B08E605C60678074207EC074E08BE07CD
:103F44001F084808BE06A906F908540964074C0767
:103F54007B08520860084809F60840089008A7073B
:103F6400A8057E06E30893083807ED078808B2071A
:103F74008907CF079B0764084309BA078D06B6086B
:103F8400580AD108EE07C8083408C206C906020751
:103F9400250795082D095B07BF065F0868084307D6
:103FA400B10795085808F407E9071308F808BC098D
:103FB400D30851072E079D072F07B2066B07B108D8
:103FC400FB080D081E076E0772089B08BF077007E1
:103FD4003C08C3084C08FA07BA088D0914099D0760
:103FE4009E06DF067B0795077907F2079A086208A1
:103FF40083072F07D50785085A08AE07A307620869
:10400400CB087F085D08DC08F108D007870679062D
:104014008B0754081B08CF071E087C0808084D07A7
:1040240077076308C3080C087607F607EA08260929
:10403400A20842083708E7071407880618073B0850
:10404400A2081508A107D8071508CB078107D407CC
:1040540071087908DD07B90785083D09DF08F1070C
:104064009307B2077107F1061E071D08E2088708C7
:10407400A1076807F5074808DC0798070E089008A9
:10408400650808083F08E3081609550853071A0786
:104094008807AD077E07B8075F088908F207550748
:1040A40075071C085B08E50798071C08990854085D
:1040B40016087E08E4086D086707E2063F07F10763
:1040C4001608DA07FD0771085608A8076A07E90702
:1040D40065084108C607A5073E08DE08BA08360881
:1040E40036085E08CF07F506F706C3076D085108C2
:1040F400E907D3072B082408A207880714086508D2
:10410400EE07A2071708C608E1085908D807BA0736
:10411400BE076D072207870758089B082608B507BE
:10412400DA0734082008B1079D0711086208260839
:10413400F5077108EF08A108D60767079007B507C8
:104144008C078907050893086808C1079107F507D4
:104154001B08D307AB07EB0757086C0834082B0878
:104164007C089908FD074E074907B407E807DC07F0
:10417400F4074708820835089D078407F9072E08C5
:10418400E507CB073C0894086D0827082D085B0851
:10419400260888072807740704082008F607230858
:1041A40061082908A6077107C0072C083C08FC070A
:1041B400F20752089E086208130808080008AA07B4
:1041C40041075107DC0763085E08FE07EA071C087D
:1041D400F4079807AF07260863082B08F507260895
:1041E400890899083108C707C407C4078307620709
:1041F400C90755086C081708CB07CF07F907FB0751
:10420400C907D7073A0866082B08E806F5032D07FF
:104214006E08D8068C061B088309BF07C90747091F
:10422400CC098D088E08F109C208E1061309EF0CC8
:10423400AF0B7E0699039705D4075006F705B5071B
:1042440003095F086A07B10863095C08B5087709C0
:10425400590993073008070C720C52084D04A00446
:10426400D30617066205E006B50859081707E107E3
:10427400DA084408DE07E608990907083007C10987
:10428400F80B070A2A064F05D4062B075D06F60627
:104294006B088508AD073A082D09860883077F084F
:1042A400D609C2082F07D308E00B300B4307F904E3
:1042B400FA05DB064E068106B40721086B07B10731
:1042C400CB0899087B07C1073D0907093007740724
:1042D4006B0A940BE108EC05DC05E906DD06E10652
:1042E400A2071708A907EA07FC08FD08CC07A007DE
:1042F4001E096C099907E8067709BD0B290ADE0631
:10430400C3057E06A90667062607EF07B6076307F7
:104314003108CE080A087D0792088209360881060A
:10432400D107A60ADC0A490870068D06C0068B066A
:104334001207EF07F80799072808D90854087C07DB
:104344002E089E0918092D073E07AF09ED0A4E09EC
:104354004E07C906BE066306AA069707D707710764
:10436400BB07AF08880870076F0705098F09F207B4
:10437400DF066308440ACA09EA070B070507B30600
:10438400B2066607D0077A0788079E08F808E2078E
:104394003C0767088909A00849070B08E109090ACD
:1043A40085086F0715079C067E065107EF07680707
:1043B40002070508190965082F07B2073609080915
:1043C4008907780737091A0A0E09C4073007CA068D
:1043D40089063B070508AE070807A207E308B408E7
:1043E40078077107B3081D09FC077B07BB08F009B0
:1043F4008B0960089407E5064B06C106E8070B081D
:1044040038073C077308D608CA0745074808330924
:1044140070085C07E2074109AB09FB081D08430764
:104424005F06680685072508970739071E08E5080B
:104434002F084B07DC071609F908BF077C07A208F9
:104444008D0953099508BF07C6064D060507E307FE
:10445400BA073607B3079F085E0873078207B208D6
:1044640022093B088E071908F9082009D0084B08CF
:104474004A077E06DD06D107DF073D07720783087A
:10448400C208C0073F071E080C09B208E807F50771
:104494009E08F208D7088B08C207D806CD06AA07DB
:1044A400EB073D0713070D08C60814084507B607B0
:1044B400BF08D2082008F8077208C108B608A9087E
:1044C40025082307BC06760726089D07FF069B07D9
:1044D400A50876087F076C074D08C2085B08150815
:1044E4004F089608C408E40881085A079606270767
:1044F4002A081308450742072A088608D5076E07C5
:10450400ED07800866081808330863089F08F50853
:10451400EC08DD079B06AF06CA0735089E074B0764
:10452400F207820812087907B4075C0876082B089A
:1045340025083F086308D608350990082907860628
:104544003D070008C9075307AC0766085508A707C5
:104554007707FA0766085C083908220818088508EE
:1045640031091509D107C4060807CB07DE076F0711
:10457400910742087F08FD078F07C5071C084008FC
:104584005408480810082008CB08350965082B078B
:10459400E0068E07ED0783074407D3077108450833
:1045A400C107B407F807270851086C082F08F50756
:1045B4006D081309C3088E07FB0682070208B207B9
:1045C4003E079B07440860080308CC07DD07F6078D
:1045D4002C087108600809083708DD08E608ED07AB
:1045E4001E075F07F707E20766076B07E50724085E
:1045F4000408F407EC07CF07EC07520872082408F4
:104604001108A708FF084D083B071D07CF071F081F
:10461400CA078707BB07FC07140816080808DC0745
:10462400DB073B08750832080108700805099B0878
:104634007F07090789070F08EB07AB07C407EC07D7
:10464400EE07F2070D08F007CA07060860084D08D0
:10465400F0071908C808E20807082E073F07D4071F
:10466400FE07D507D707FE07080806080B08E80762
:10467400BF07F40760086408FF07E7077408E80841
:10468400720893074A079E07DB07CA07C907F107A1
:1046940006080A081A08FE07B107B6073708800893
:1046A4002208BC071108C108B108E50755078C07A3
:1046B400E407D407C807E307F607FE0725082E0812
:1046C400D407A307060875084C08DE07FD07910800
:1046D400C408390899078707CE07E707DC07D2071C
:1046E400C807CE071308560812088306CB08AC0780
:1046F400B00798096A061608F809F706E908BB071F
:104704003106C409240797074F0938066908370991
:104714001607510937070C078A097B0620087E090A
:10472400F0064D091D08A3061409D006AB077E093F
:10473400BA0661081408C306FD09B907F3066A0935
:1047440020071C08420869069A09A3083C070A09BD
:10475400730686073109B406B3085208A10638095E
:104764009A0784072909F806E008CF083D06E208FD
:1047740010088407BC095507D00760083706D1081C
:1047840084080107FB081907E40787099006150840
:10479400D3085F073D095C071C0763094E076B08D4
:1047A400C6083F066108DB07120736093607C0074B
:1047B4002309FE0684081B08F5068309C7077E073C
:1047C40059092B074008B108FF06E2087207D20610
:1047D40024093B07D007B508E70608096408B606AC
:1047E400DD08A007EF0716090107C008C108EB069A
:1047F400E4087807E706E0083D071C086A089806FD
:10480400CC08520859070A093907D8071609F106CE
:104814008508B7086E072A09BC078107940885062E
:104824002808F308FD0679089B0758074E0969070D
:10483400CE07B9082907C3082F083B075109D90730
:10484400F0070D09B206A3071D083C0703099C07DE
:104854003607F508390707089508FA06D208370815
:104864003C07FC08AB070808FF084B077708DE077E
:10487400A506CA08DE079507C60835073E087E0860
:1048840003079B08ED079507050968071908D4086D
:104894004707BC08470802075F086A07E907B90821
:1048A400F506400886085107A90897077B07E6081C
:1048B4006707210898086B07C50812088E07C908FE
:1048C4002607A907B90849073B0804085707D5086C
:1048D400BD07B607A9082C07350876086007C9087C
:1048E400F807A90706098D07B9072C085907C60850
:1048F400F7071B07A108A707DE07A0084607490812
:104904003D084D079708C907CF07E20890074C08F0
:104914004C08F506710819088C0785086607EE0728
:10492400730850079108380862079808A207CF0750
:10493400A1086A07760894085F0737088907CE0735
:10494400E0085A07E607680855077508FC079B073F
:10495400BB089B07E5077808500761085908DE077C
:104964006908A70798073E08EB070A081408C30755
:10497400F507EE07E10730081808DE0700081208FB
:1049840001080208030840084808D007AC07D90703
:1049940008083A08FE07CC070C08ED07F1070908D8
:1049A40002081A08FE07E1071308F8070C084F0865
:1049B4002708F507CC07B4070D080D08F4070C0801
:1049C400EB079D03B5040B08A5074307470818091F
:1049D4001107BC069C0990083908E509D808A30703
:1049E400FC0A0D0EF7075C035A048F074006940671
:1049F4008C08FA081B08E407C30984081F08F20896
:104A04002509E607B10A430D5C092904ED038A066A
:104A1400CD050B063F0890081007FB074F093F0818
:104A2400C307F208CD0818075F09AC0C3D0A6405FA
:104A34000005A6069A06DF069208B9082A070008A8
:104A440077095008D2077C0915094707EB08430C7E
:104A5400ED0A3A06DA041E060D06A5064B082C08D4
:104A6400FC06BF07DB08F507560738094909EF06B6
:104A7400F307930B0A0B21075E0567069F06CD0615
:104A840046087D0841072C084009FC074E07100919
:104A940056093707C807530B4C0BA007C4053D063E
:104AA4001A0693062C084608F1069A07F408EF073D
:104AB400310714096C090707EE06350A240B670849
:104AC400690684064E06B6064E0876085407F507AE
:104AD400EF08C20714071809F409A5070207E40937
:104AE400E60AAD08D606790618067A0625087A0875
:104AF40023079607EA08DA07F006AC08C709CD07CA
:104B0400BF062809DA0A26094407A206FE05760626
:104B140024087C085C07A807F208FB07C506990867
:104B24001C0A2B08EA06D3087F0A6D09CF0705077C
:104B3400FE05FA05E207630837078207BD08060881
:104B4400D9061308DF09990809077208030A7A09C4
:104B54006F08470725063E06CE076D083F07710715
:104B64001C095208BC06CE079209C60833071A0866
:104B7400EF09B2099D08BC0750061806AF074C0898
:104B840034070E079B089B08F5068D077109B708C3
:104B94003907DB072B096C09E8082708A506EF0588
:104BA400B007B60855072F07C2089208E106310777
:104BB4004E0939098D07DE070D091D09FC085F0838
:104BC400DE060D063C07740882078805C708420AFA
:104BD4009906B406220AD908A6055A07280AF50830
:104BE400A908560AE5072F047706140A670877060A
:104BF4001309D6092E06D50596093509AF06F70718
:104C0400F3098008CE07C9095D08BB048206170AA8
:104C1400270895057E08800A4C07F30517096E09D5
:104C24009106570779092008AC07EF09E108F20457
:104C3400BE05AB097D08BD055008640A5F0746063A
:104C440045098D09DC068407CD0944084407D509C4
:104C540027092705CA059D099A08A5059B07140A73
:104C64008A0715060609C6097507B3074709FB072E
:104C74005107E609CB0999053205CA0895082706A4
:104C8400CA07F909C207F505620860094607E9077A
:104C9400120A7A08E7065909FF0948065405DA0892
:104CA400EB08DA052507F5092608330658086009D4
:104CB4003E075E0779094C081A07EF09910A4E0668
:104CC400F5047408030956064D07E9093608210658
:104CD4000E0811093907AF07B109420892061E09E7
:104CE400A40A4E0776052308CE085E0607078E0938
:104CF40085088506DB070A0982077E076F0976089F
:104D0400BD06D7087C0A6307510509085309BF0685
:104D1400B8067209C8089D06C207FD08710768072E
:104D2400B00905099C065408990ADC074C057C0760
:104D3400EF08FE06F2064709B1088806B207F20832
:104D440052074C077509D008CE066D08A00A3E0824
:104D54008B055607B908DC06D70641091A093D0731
:104D6400B207AE084807130774093E09C506CA0707
:104D74005A0AE10827061E07C2085907A80684082C
:104D84008A08FD06EA072509AC07F506F508350982
:104D9400D6068407510A100925060D07BD087807B1
:104DA400D306B408EC08EA065B07D708AB07390753
:104DB40065097209EA062E07D60947098506F00631
:104DC400770861070007A408A1083407AE07E208C2
:104DD4009F07BD06DD089A095D0757078D092F094E
:104DE400D006DC064B087E07D3068908F90852076B
:104DF4009207DC08F207E8069C08B5098C07FD0653
:104E0400800993091007DF062B089007D206420891
:104E1400CB08290786072009E4079B068C08D209DA
:104E2400D207E60613099F09630713072B083E07F9
:104E3400B1064C08E50879076D07B408FD07F906C3
:104E44004408460921089807940815094108780779
:104E5400970795076A07C707F107BD0707083F08C3
:104E6400CF076307FB07D3086D08BC073F08E508B5
:104E74008308BA076B078607B90708082C08DD07FB
:104E8400BE07FE07D3079707030896087808F707B5
:104E94002108A7087308D60797078C07AF07F107FF
:104EA4000A08FE0716083808CE073207A107880843
:104EB4007608E4070308A108A508FA0795077E0702
:104EC4009E0700081E08E607EA073B082E08B707F6
:104ED400BC0753085D08E107F4075B08730818086A
:104EE400D607BB07AA07D007FB07CE07D0072E08B3
:104EF4000D089207B8077E08A208FC07E3075808C4
:104F04006D081008AA076E079A0717084708EE07E6
:104F1400BE07030807089E07A0074508910846082E
:104F24001908410864084208F2079F077807B20786
:104F34000A08FC07ED072D082408A6077E070E08BB
:104F440073082F08FA07510893084E08E1078B07E6
:104F54008907DA072008EB07AC07EB073108E907F4
:104F64009C070B0870084108F9071A086A087308B7
:104F74003708C8076F079F070E081108E4070608DB
:104F84001908BF077F07EE0770084508F0071608E1
:104F9400610868081F08CB07A807C607FD07DF07D5
:104FA400AC07E7073108FC07B107ED0755084C08C3
:104FB400FF07F60722083E083F080308AF07BE07AD
:104FC40019082708D807CB07F907D9079E07DE0772
:104FD4005408560814080D08360837082108ED0748
:104FE400A207AF0712082C08FC07FF0733080508BF
:104FF4009407AD0723083B081908060815083B0861
:105004004D082508B4078707DF071708F107F407D9
:105014002D082808DD07C50707082208F107EA0755
:105024000F0831083E081008CC07C207FC071A080D
:10503400EF07DA0712081908E107F30732084208F4
:105044000A08DF07ED07130833082008BC07910797
:10505400DA071B081B080A0813080508D907D7072D
:10506400FC071C082B081508F807060830081C085C
:10507400CC07AC07DE07F807E307F6072608220883
:10508400FF0702080F0817080C080208F5071008A4
:1050940044083508DA07AB07D207FC0701080808FB
:1050A4000708E507D507F9079407A7016A08160852
:1050B400F2039007C00BAB07EA0424095A09240938
:1050C400FF0AEF099D08B50C990A4602C4035C0B5C
:1050D400A9085D03EA078D0BFF05F605D40BE60965
:1050E4002306F5096B0CDD09DF08ED0639036804B6
:1050F4008909AA07E5045709A80A0C0584068F0B39
:10510400980890051C0B630DC907160505070206D0
:105114004E068A096608200607096F0951066508C4
:10512400B60B1F086E063F0C270C6704F203A80891
:10513400480767056F08B3086F06C90774098E0727
:10514400C107D9096C08A908510C2A099402190548
:10515400020A410757058D09FC09A1052707C80A5A
:105164006108DF06FC09950AFE08C70887062604BD
:105174000D07CF0995066C059609EB08330533082E
:10518400470B7F075A06F80A560B180728063407F8
:105194004B06520707093D07DF0680096B084606E0
:1051A400EB08530A1007AF075B0C4E0A7404A00502
:1051B4008108BB068E0612091F089A062208B80841
:1051C400880795088C09C407C4084C0B9C079F03E7
:1051D4000907B909B1064B067B098C0800065B0870
:1051E400340ABF078C07C9097E09EF08FB084C067F
:1051F400B004C807440963068F06C1091E08E40504
:105204001C09540ACE064607170B390AF506C506CB
:10521400FC0662060308F808E10613072309B00731
:10522400C506A409D809CE064608B10BEB08ED045F
:10523400B8065308C3064C07DE08B0072B07A908B5
:1052440051086E07C708E5086F074909CC0ACF065D
:105254008004F40708095D063D079009B8076C0649
:10526400F308720966072D088809C008D408C40821
:10527400E5054E058E08E20840066D079D096407A2
:105284007406B009AD09A106E1079C0A3709300785
:105294006907E2068C065D089108AE067D070609DB
:1052A40084076207AC09DF08C1060809170BF40775
:1052B4008C054B07DB07160730089B0801075407CA
:1052C400A408F807AF07F40860089307C309240A81
:1052D4004D0681056F086908B106140803091B0708
:1052E4002F075409A7081F07580834099F080709FE
:1052F4004F08B4054106F6082F08780644082D091E
:10530400F0064807CA098108A306B808450A7E08BA
:105314005E076A079F06E606A6082A080E0716080F
:1053240072087B0748084E09EB0756077209160AEC
:10533400DE076D0617078E077507C607FF07C60742
:10534400AA07EC0750089F08300896079708EA094F
:10535400DE08A0068B06D5070908C5071A08070842
:105364006507BA077C087C08FB07ED0788085C0919
:105374001E0972073C0625074908DA079507410804
:10538400F80727071E08EA08E20746078708820984
:10539400CF08A207FC06FE06D8074A08E207CC0796
:1053A40071084008B0072B088308B307C9076609CA
:1053B4007809B507B6062A078B07BD0728080C0825
:1053C400B707E207570864083308CA07AD078D0812
:1053D40048095308E5060A07D107D707DD07460839
:1053E40018089107DB0763085F081E081408710892
:1053F4000009AF084207AA0688072D08E007FB0743
:105404004608CB07A407760876088F07B407E00898
:10541400350971088207CF06D506CC076D080F0839
:10542400E2070F08CF07E4078C086D088607FC071E
:105434006B093B099C07D60613076E07E707330879
:10544400FE07BD070508420829080408F8072708CD
:10545400F0082209120821074207AB07BC07D4074A
:105464000408D507BE0727085F080808CA07FD0710
:10547400AE083F0987082107E806EC074E08D00765
:10548400D00701089007930759086508D607F10764
:10549400A008C1084408AE07260733070C08810892
:1054A40048082A0800089A07B4072A0804089F072E
:1054B40051083A09A5086D071D076807C1070B08BD
:1054C40035082F081A081F08FB07FF072008D9070B
:1054D400D607B108F508CF07DE062A07BD07160868
:1054E40067086208DD07E20752083D08EA07E50796
:1054F400F7075108CB084E082507FC06D207000819
:10550400D1073C086308D507DF076F084B08C607B7
:10551400FB077A0878081908880701076D075608F9
:105524005908E30712083A08E107F0075A08200867
:10553400CF077008D80811084B0747076B07B10756
:1055440030084E081D08FF07EF07EE0730084B0828
:10555400E9071708D0089C08800722077807A807DE
:10556400DB0741083C08FE0716082C08F107F4077E
:1055740031082F086308BF081A0825074E07F107EA
:10558400D207D6075D081C085607D907A3080908DF
:10559400AE073F08A6087108E307D00739075E077E
:1055A4006A084808CE0736081408B40709085E08D4
:1055B4003E08CB073308B408F9078007A1077D0725
:1055C400E50748082B080B08D107C8070A081D0877
:1055D4002708F3073908FE0844081B075607A207E3
:1055E400AE0714085B084508E607F2072A08D8073F
:1055F40014085708E3074108C308E90737077C077D
:105604000208EA07DC0773082A08760723088208D9
:10561400D907DB074E0870082D08D307B2076B07BC
:10562400900732080508FF076508F607B407430822
:1056340073082908E00729086908DB078707990721
:10564400960715083E08E8070108FA07D707160861
:1056540052084308FE0722088E08F3077707C90794
:10566400AA079007100843081308D607FD072C085B
:10567400F70738086708FB0748089008B707310799
:10568400980717080908EB075B0817088807ED0750
:105694003108EE072008620866082008D207D507FB
:1056A400A40795070008120802080E08D407F70794
:1056B4003A0828081608030831086308F807B507EC
:1056C400C307E2071208EE07E0072C08F007A90752
:1056D40006084B082108EC073C087D08E407B107DD
:1056E4000708B207A50729083408DB07C307FE0724
:1056F4001608F4073B083208DB073C085708A607DE
:105704008E070F082A08DA07F0076308FF077507F2
:10571400ED07480801080C0835084B083008F30762
:10572400C6079D07CE0726080C080D081D08E007CC
:10573400F107270817080C080C081B081308D707DB
:10574400D007E407EF070008E007FE074408E40772
:10575400B1072F086608FE07C3072E085808D107AB
:10576400C4071408D307C90715080408DD07F3079D
:1057740021080D08040853082508CD07340831080A
:10578400A207B3070B08F507DC0731085E08B90761
:10579400850717082F080A0828081D082608260860
:1057A400EF07C607D407FD07EB07C8072808320828
:1057B400CA07F2072C08070800081D082608040871
:1057C400FA071008CC07C2071B08FF07E6072108E1
:1057D400F507CE070B083508F907CC073D08640820
:1057E400D907DF072808DB07BF07FE071608F007FD
:1057F400DB070B080408050845081008D4071B0834
:105804001E08EF07FC071408E707D0070C08150863
:10581400D607F4071708F107EF0719081B0807084C
:1058240011080508DE07FA071B08DE07EB07340832
:10583400F707AD07EE073E081D08F30713080D0828
:10584400F8070F080208D007F4071A08F807FA0740
:1058540025080708C507ED072108ED07D907210822
:10586400F207B607FA070E08D707E30710080E0871
:105874000B0827081308130845081108CC0720084B
:1058840097080F087A079007FD07F607F207230821
:105894002908FF07E207140827082D080508D90777
:1058A400F60740084B080A08C1079707AB07DE074D
:1058B40019080F08EA07F5070F081F081C08110844
:1058C40014080E08E007F50749084808D4079B07A1
:1058D400F0071F08E507E5071408FD07ED071008A2
:1058E4001F0810081A081308D907F00759084B08AD
:1058F400E207C607C707B507EB072F08FB07B90779
:10590400FB073608F907F90745080808AB07EE074F
:105914006C086B080B08C207B007C9070308030823
:10592400E807FF071608F907F207120823080C080E
:10593400F8070C082D083D081808CD07C107D9073A
:10594400DE07F8071108F207E4070D080808E10765
:105954000D084E080A08C3071E086D081B08C40773
:10596400CA07C807D4070F081F08EC07E607120880
:10597400FF07F90740084108D907C7071F084A0865
:105984002608F807D507B407C807FC07F007D907A6
:105994000C0835081308FA071A0831080108DF074C
:1059A4000208270822080608E107CA07C807E00713
:1059B400F8070008150829080A08F107170833082A
:1059C4000D08D807ED072D082C080008CC07AD07F3
:1059D400C60705081B080A08FA0707080A08FD078E
:1059E400120831080E08E007E20711082E08100813
:1059F400E607E107E307F107FF07F707FE071808C3
:105A04001408EB07E70724083308EC07D107090853
:105A1400220811080C08FC07D507D5070E080D0845
:105A2400E9070D081408DA07E40725082008DA074F
:105A3400E3072808340822081608D807B307EF0735
:105A440025080908F0070B081B08EE07E9071308E7
:105A54001108ED07EC070208290822080908F307D2
:105A6400D707DB07FF0701088507BB075808D507D9
:105A74009E0747085E08C407E0072008FC071308D0
:105A840075083708EF07F407F607B807040839085C
:105A9400DC07970704081208E30708084008100801
:105AA400150849086F081D08B9078807CE071908A3
:105AB400D907A40733086908CF07A80743083308A0
:105AC400AC07FB0784084008ED07FC07BC078B07FD
