:020000040800F2
:1000000000200020150E00088B0800088D0800084D
:1000100000000000000000000000000000000000E0
:100020000000000000000000000000008F08000831
:10003000000000000000000091080008930800087C
:10004000650E0008650E0008650E0008650E0008C4
:10005000650E0008650E0008650E0008650E0008B4
:10006000650E0008650E0008650E0008650E0008A4
:10007000650E0008650E0008650E0008650E000894
:10008000650E0008650E000800000000650E0008FF
:10009000650E000879060008650E0008650E000868
:1000A000650E0008650E0008650E0008650E000864
:1000B000650E000800000000650E0008000000004A
:1000C00010B5064C2378002B07D1054B002B02D02E
:1000D000044800E000BF0123237010BD1800002079
:1000E00000000000C00E0008044B10B5002B03D028
:1000F0000349044800E000BF10BDC04600000000F6
:100100001C000020C00E0008002243088B4274D35C
:1001100003098B425FD3030A8B4244D3030B8B4208
:1001200028D3030C8B420DD3FF22090212BA030C11
:100130008B4202D31212090265D0030B8B4219D3F2
:1001400000E0090AC30B8B4201D3CB03C01A524112
:10015000830B8B4201D38B03C01A5241430B8B425A
:1001600001D34B03C01A5241030B8B4201D30B0343
:10017000C01A5241C30A8B4201D3CB02C01A52416A
:10018000830A8B4201D38B02C01A5241430A8B422D
:1001900001D34B02C01A5241030A8B4201D30B0216
:1001A000C01A5241CDD2C3098B4201D3CB01C01A30
:1001B000524183098B4201D38B01C01A524143093A
:1001C0008B4201D34B01C01A524103098B4201D328
:1001D0000B01C01A5241C3088B4201D3CB00C01A95
:1001E000524183088B4201D38B00C01A524143080D
:1001F0008B4201D34B00C01A5241411A00D2014632
:10020000524110467047FFE701B5002000F006F8A4
:1002100002BDC0460029F7D076E770477047C04658
:10022000F0B5DE4657464E464546E0B58BB018223F
:10023000002104A800F017FE594B5A698021C90318
:100240000A435A615A690A400392039A5A69802103
:1002500089020A435A615A690A400292029A5A690B
:100260008021C9020A435A615B690B400193019BDB
:100270004C4D0126AE6202239A46AB620233994688
:10028000AB6204339846AB6208339B46AB621033D3
:10029000AB624022AA628021A96204960896902748
:1002A000FF0504A80100380000F0F8FA5046049059
:1002B00000240594089604A80100380000F0EEFA26
:1002C000484604900594089604A80100380000F000
:1002D000E5FA404604900594089604A80100380009
:1002E00000F0DCFA0496059606940794089404A896
:1002F0000100280000F0D2FA5046049005960694BA
:100300000794089404A80100280000F0C7FA4846A2
:100310000490059606940794089404A80100280008
:1003200000F0BCFA404604900596069407940894A1
:1003300004A80100280000F0B1FA58460490059680
:1003400006940794089404A80100280000F0A6FA77
:1003500020230493059606940794089404AB19008F
:10036000280000F09BFA4022049205960694079418
:10037000089404AB1900280000F090FA8021049141
:10038000059606940794089404A9280000F086FABC
:100390000BB0F0BCBB46B246A946A046F0BDC04675
:1003A0000010024000040048072806D88000114BC6
:1003B0001B589F46104B01229A6170470E4B022238
:1003C0009A61FAE70C4B04229A61F6E70A4B08227D
:1003D0009A61F2E7084B10229A61EEE7064B202261
:1003E0009A61EAE7044B40229A61E6E7024B8022D9
:1003F0009A61E2E7180F000800040048084B012248
:100400009A6201329A6202329A6204329A62083225
:100410009A6210329A6220329A6240329A6270472F
:100420000004004870B590B0FFF7E8FF814B1B78DF
:10043000022B2AD0032B4FD0012B00D0F1E07E4BB2
:100440001878FFF7B1FF7D4B1B78002B0ED17A4B4C
:100450001B78062B03D8784A01331370E7E0774AFC
:1004600001211170744A013B1370E0E0724B1B785C
:10047000002B03D0704A013B1370D8E06F4A002173
:1004800011706D4A01331370D1E06D49FF238B6108
:10049000694B1B786B4A5800825A8A626A4A127802
:1004A000002A0CD1062B03D8634A01331370BEE037
:1004B000654A01211170604A013B1370B7E0002BBF
:1004C00003D05D4A013B1370B1E05F4A0021117017
:1004D000594A01331370AAE05C4B1B78012B5FD0A3
:1004E000022B6CD0002B48D159480822002100F083
:1004F000BAFC584B00221A70002400E00134072C8B
:1005000014DC554B1A6855485043554A944660448C
:1005100018606421FFF77EFE3B29EFD84C4B012287
:100520001A554C4A137801331370E7E7494B1B788F
:10053000002B0ED1484A1168484B4B4348498C4622
:100540006344136007221340414A0121D154414BB7
:100550001970414B1A6841485043414A94466044DF
:1005600018604049FFF756FE64313F4B19803F4BFE
:1005700000221A80354B01321A7068463C4B02004B
:10058000190070C970C231C931C211C911C22033FA
:1005900031CB31C213CB13C203CB03C2002333E0F0
:1005A000324A3449138809885B189BB213802E4A5B
:1005B00012889342E1D3254B02221A70DDE7254BC6
:1005C0001878002815D0244A1168244B4B4324493D
:1005D0008C4663441360072213401D4AD25C002AF4
:1005E000F1D0CAD01A4A0021D1541A4B01381870E0
:1005F000C3E7164B00221A70BFE79A0069465158AC
:1006000008A812588A620133072B10DC104AD25C0A
:10061000002AF2D09A006946515808A812588A61F7
:10062000F1E7044B01221A70034B00221A7010B03C
:1006300070BDC0460A0000204C000020350000209C
:1006400000040048380F0008340000204400002057
:100650003C0000203A000020000000206D4EC64102
:1006600039300000790500003600002038000020F5
:10067000D80E00080800002010B5034800F071FAF9
:10068000FFF7D0FE10BDC0465000002070B504003A
:10069000064D280000F044FA013CEC60280000F010
:1006A00057FB280000F006FA70BDC046500000203D
:1006B00030B583B09021C9050A69012313405A421D
:1006C000534101AA13700869022303405842434171
:1006D00053700869042303405842434193700969E9
:1006E00008230B4059424B41D37000241EE0032CD9
:1006F00014D1254B03221A70244B00221A700DE0EE
:10070000234B1A88FA239B009A422ED0204BFA22C0
:1007100092001A801E4B1888FFF7B8FF002D02D1F7
:100720001C4B00221A551C4B1D550134032C28DC90
:1007300001AB1D5D002DF1D0174B1B5D002BEDD1E2
:10074000144B1B5D002BE9D1124B01221A55022CD0
:1007500010D0CCDC002CD3D0012CDFD10A4B0122ED
:100760001A700A4B00221A70D8E7094BFA2252007D
:100770001A80CFE7044B02221A70044B00221A7031
:10078000CCE703B030BDC0460A0000204C0000207A
:1007900008000020480000200400002072B6FEE798
:1007A00010B50C480C4B03600C4B43600023836076
:1007B0000B4AC260036143618033836100F0C8FA71
:1007C000002804D1074B802292031A6010BDFFF766
:1007D000E5FFC04650000020004401403F1F0000DC
:1007E000E703000000E100E010B51A4A1368012198
:1007F0008B431360174B1B68DB07FBD4164A136847
:1008000001210B431360144B1B689B07FBD5124B54
:100810001A68F8218A4378390A431A605A68703195
:100820008A435A605A680D490A405A605A6803213F
:100830008A435A60084B5B680C221A42FAD1084876
:1008400000F0E2FA032000F085F8002800D110BD86
:10085000FFF7A4FF0020024000100240FFF8FFFF56
:1008600000127A0010B500F09DF8FFF7BDFFFFF70A
:10087000D7FCFFF795FFFA204000FFF707FFFFF7CF
:1008800017FF322000F0B0F8F9E7FEE7FEE7704707
:10089000704710B500F096F810BD7047F0B5002213
:1008A00016E00B699C46C4682B006B435E00F6188B
:1008B000F743B44366465E433443C4604C68022C3D
:1008C00026D04D6804683C406B43234303600132EB
:1008D0000C682300D3403BD00123934025001D40EA
:1008E0001C42F4D04B68013B012BDAD88F68836837
:1008F0002C006C4366003619B3437C43234383606A
:100900000E68CC684368B343744323434360C8E72D
:10091000FF2D0DD84C69A446066A1C006C436C433D
:1009200025012D1BAE4365466C4334430462C8E782
:100930004C69A446466A2D0A2C006C436C436C43F8
:1009400025012D1BAE4365466C4334434462B8E732
:100950000020F0BD10B504000F4B1978FA2080007C
:10096000FFF7D2FB01000D4B1868FFF7CDFB00F03D
:100970009DF800280DD1032C01D901200AE0013097
:1009800000222100404200F08DF8054B1C60002041
:1009900000E0012010BDC046100000200C00002027
:1009A0001400002010B5064A136810210B43136091
:1009B0000320FFF7CFFF00F0F9F9002010BDC0467B
:1009C00000200240034A1168034B1B785B18136038
:1009D0007047C0469800002010000020014B1868A6
:1009E0007047C0469800002070B50400FFF7F6FF7E
:1009F0000500631C02D0044B1B78E418FFF7EEFFE0
:100A0000401BA042FAD370BD1000002070B5002832
:100A100011DB8308134DC0339B005C590322104047
:100A2000C000FC3216008640B44389010A4082406F
:100A300022435A5170BD0F230340083B9B080633E5
:100A40009B00094A944663445C6803221040C0003E
:100A5000FC3215008540AC4389010A4082402243A4
:100A60005A60E7E700E100E000ED00E00138802394
:100A70005B0498420FD2094A50600948036A1B027E
:100A80001B0AC02109060B4303620023936007334E
:100A90001360002070470120FCE7C04610E000E032
:100AA00000ED00E010B5FFF7B1FF10BD10B5FFF786
:100AB000DDFF10BD3D23C35C012B26D13C33022258
:100AC000C2540268D36801210B43D3600368114A02
:100AD00093420FD08022D20593420BD00E4A93420C
:100AE00008D00E4A934205D01A6801210A431A60C1
:100AF00000200BE0996807220A40062A07D01A68EE
:100B000001210A431A60002000E001207047002004
:100B1000FCE7C046002C01400004004000400140BA
:100B20000268D36801218B43D3600368196A084ABD
:100B3000114207D1196A074A114203D11A680121EB
:100B40008A431A603D230122C25400207047C046E8
:100B5000111100004404000070477047704770474F
:100B6000704770B504000368DE681D69AA070ED5DA
:100B7000B2070CD5032252421A610123037703689E
:100B80009B699B0751D0FFF7E9FF002323776B0791
:100B900012D5730710D52368052252421A61022329
:100BA000237723689A69C0239B001A4243D0200010
:100BB000FFF7D4FF002323772B0710D533070ED57B
:100BC0002368092252421A61042323772368DB69D0
:100BD0009B0737D02000FFF7C1FF00232377EB06E8
:100BE00012D5F30610D52368112252421A61082348
:100BF00023772368DA69C0239B001A4229D020009A
:100C0000FFF7ACFF00232377EB0701D5F30727D4C9
:100C10002B0601D533062BD46B0601D573062FD4D2
:100C2000AD0601D5B60633D470BDFFF796FF2000A0
:100C3000FFF795FFA9E72000FFF78FFF2000FFF7E0
:100C40008EFFB7E72000FFF788FF2000FFF787FF40
:100C5000C3E72000FFF781FF2000FFF780FFD1E707
:100C60002368022252421A612000FFF775FFCFE786
:100C70002368812252421A61200000F096F8CBE7E7
:100C80002368412252421A612000FFF769FFC7E73B
:100C90002368212252421A61200000F085F8C3E740
:100CA0000368244A904206D08022D205904202D0A6
:100CB000214A904203D1702293434A6813431D4A4C
:100CC000904212D08022D20590420ED01A4A904211
:100CD0000BD01A4A904208D0194A904205D0194ABE
:100CE000904202D0184A904203D1184A1A40CB6869
:100CF0001343802293434A69134303608B68C362A2
:100D00000B6883620B4B984208D00D4B984205D07C
:100D10000C4B984202D00C4B984201D10B690363F3
:100D2000012343610269134203D003690122934303
:100D300003617047002C0140000400400020004087
:100D4000004001400044014000480140FFFCFFFF1B
:100D500070B5041E26D03D23C35C002B1CD03D255E
:100D600002236355210001C9FFF79AFF01234622A0
:100D7000A354083AA3540132A3540132A3540132BC
:100D8000A3540132A3540132A3540132A3540132BB
:100D9000A3546355002070BD3C330022C25400F0C0
:100DA0001DF8DCE70120F6E77047704782B00A4B78
:100DB000996901221143996199690A400092009A48
:100DC000DA69802149050A43DA61DB690B40019346
:100DD000019B02B07047C0460010024082B002681A
:100DE000074B9A4201D002B07047064B9A698021A6
:100DF00089020A439A619B690B400193019BF2E7C8
:100E00000044014000100240014B18607047C0468A
:100E10000C0000200D488546FFF73FFD0C480D49AA
:100E20000D4A002302E0D458C4500433C4188C4245
:100E3000F9D30A4A0A4C002301E013600432A242AB
:100E4000FBD300F019F8FFF70DFDFEE700200020AE
:100E50000000002018000020500F0008180000209B
:100E60009C000020FEE703008218934200D17047E7
:100E700019700133F9E7000070B500260C4C0D4DD8
:100E8000641BA410A64209D1002600F019F80A4CF0
:100E90000A4D641BA410A64205D170BDB300EB58E7
:100EA00098470136EEE7B300EB5898470136F2E772
:100EB000480F0008480F00084C0F0008480F0008B2
:100EC000F8B5C046F8BC08BC9E467047F8B5C046A9
:080ED000F8BC08BC9E46704707
:100ED80000040048000400480004004800040048DA
:100EE80000040048000400480004004800040048CA
:100EF80001000000020000000400000008000000DB
:100F080010000000200000004000000080000000E9
:100F1800B4030008BC030008C4030008CC0300089D
:100F2800D4030008DC030008E4030008EC0300080D
:100F380001000200040008001000200040008000AA
:040F4800E9000008B4
:040F4C00C1000008D8
:100F50003930000001010101E803010000127A00AC
:080F6000010000000400000084
:0400000508000E15CC
:00000001FF
